{
  "address": "0x4f7A67464B5976d7547c860109e4432d50AfB38e",
  "abi": [
    {
      "inputs": [
        {
          "internalType": "string",
          "name": "_name",
          "type": "string"
        },
        {
          "internalType": "string",
          "name": "_symbol",
          "type": "string"
        },
        {
          "internalType": "address",
          "name": "_lzEndpoint",
          "type": "address"
        }
      ],
      "stateMutability": "nonpayable",
      "type": "constructor"
    },
    {
      "anonymous": false,
      "inputs": [
        {
          "indexed": true,
          "internalType": "address",
          "name": "owner",
          "type": "address"
        },
        {
          "indexed": true,
          "internalType": "address",
          "name": "spender",
          "type": "address"
        },
        {
          "indexed": false,
          "internalType": "uint256",
          "name": "value",
          "type": "uint256"
        }
      ],
      "name": "Approval",
      "type": "event"
    },
    {
      "anonymous": false,
      "inputs": [
        {
          "indexed": true,
          "internalType": "address",
          "name": "_dst",
          "type": "address"
        },
        {
          "indexed": false,
          "internalType": "uint256",
          "name": "_amount",
          "type": "uint256"
        }
      ],
      "name": "Deposit",
      "type": "event"
    },
    {
      "anonymous": false,
      "inputs": [
        {
          "indexed": false,
          "internalType": "uint16",
          "name": "_srcChainId",
          "type": "uint16"
        },
        {
          "indexed": false,
          "internalType": "bytes",
          "name": "_srcAddress",
          "type": "bytes"
        },
        {
          "indexed": false,
          "internalType": "uint64",
          "name": "_nonce",
          "type": "uint64"
        },
        {
          "indexed": false,
          "internalType": "bytes",
          "name": "_payload",
          "type": "bytes"
        },
        {
          "indexed": false,
          "internalType": "bytes",
          "name": "_reason",
          "type": "bytes"
        }
      ],
      "name": "MessageFailed",
      "type": "event"
    },
    {
      "anonymous": false,
      "inputs": [
        {
          "indexed": true,
          "internalType": "address",
          "name": "previousOwner",
          "type": "address"
        },
        {
          "indexed": true,
          "internalType": "address",
          "name": "newOwner",
          "type": "address"
        }
      ],
      "name": "OwnershipTransferred",
      "type": "event"
    },
    {
      "anonymous": false,
      "inputs": [
        {
          "indexed": true,
          "internalType": "uint16",
          "name": "_srcChainId",
          "type": "uint16"
        },
        {
          "indexed": true,
          "internalType": "address",
          "name": "_to",
          "type": "address"
        },
        {
          "indexed": false,
          "internalType": "uint256",
          "name": "_amount",
          "type": "uint256"
        }
      ],
      "name": "ReceiveFromChain",
      "type": "event"
    },
    {
      "anonymous": false,
      "inputs": [
        {
          "indexed": false,
          "internalType": "uint16",
          "name": "_srcChainId",
          "type": "uint16"
        },
        {
          "indexed": false,
          "internalType": "bytes",
          "name": "_srcAddress",
          "type": "bytes"
        },
        {
          "indexed": false,
          "internalType": "uint64",
          "name": "_nonce",
          "type": "uint64"
        },
        {
          "indexed": false,
          "internalType": "bytes32",
          "name": "_payloadHash",
          "type": "bytes32"
        }
      ],
      "name": "RetryMessageSuccess",
      "type": "event"
    },
    {
      "anonymous": false,
      "inputs": [
        {
          "indexed": true,
          "internalType": "uint16",
          "name": "_dstChainId",
          "type": "uint16"
        },
        {
          "indexed": true,
          "internalType": "address",
          "name": "_from",
          "type": "address"
        },
        {
          "indexed": false,
          "internalType": "bytes",
          "name": "_toAddress",
          "type": "bytes"
        },
        {
          "indexed": false,
          "internalType": "uint256",
          "name": "_amount",
          "type": "uint256"
        }
      ],
      "name": "SendToChain",
      "type": "event"
    },
    {
      "anonymous": false,
      "inputs": [
        {
          "indexed": false,
          "internalType": "uint16",
          "name": "_dstChainId",
          "type": "uint16"
        },
        {
          "indexed": false,
          "internalType": "uint16",
          "name": "_type",
          "type": "uint16"
        },
        {
          "indexed": false,
          "internalType": "uint256",
          "name": "_minDstGas",
          "type": "uint256"
        }
      ],
      "name": "SetMinDstGas",
      "type": "event"
    },
    {
      "anonymous": false,
      "inputs": [
        {
          "indexed": false,
          "internalType": "address",
          "name": "precrime",
          "type": "address"
        }
      ],
      "name": "SetPrecrime",
      "type": "event"
    },
    {
      "anonymous": false,
      "inputs": [
        {
          "indexed": false,
          "internalType": "uint16",
          "name": "_remoteChainId",
          "type": "uint16"
        },
        {
          "indexed": false,
          "internalType": "bytes",
          "name": "_path",
          "type": "bytes"
        }
      ],
      "name": "SetTrustedRemote",
      "type": "event"
    },
    {
      "anonymous": false,
      "inputs": [
        {
          "indexed": false,
          "internalType": "uint16",
          "name": "_remoteChainId",
          "type": "uint16"
        },
        {
          "indexed": false,
          "internalType": "bytes",
          "name": "_remoteAddress",
          "type": "bytes"
        }
      ],
      "name": "SetTrustedRemoteAddress",
      "type": "event"
    },
    {
      "anonymous": false,
      "inputs": [
        {
          "indexed": false,
          "internalType": "bool",
          "name": "_useCustomAdapterParams",
          "type": "bool"
        }
      ],
      "name": "SetUseCustomAdapterParams",
      "type": "event"
    },
    {
      "anonymous": false,
      "inputs": [
        {
          "indexed": true,
          "internalType": "address",
          "name": "from",
          "type": "address"
        },
        {
          "indexed": true,
          "internalType": "address",
          "name": "to",
          "type": "address"
        },
        {
          "indexed": false,
          "internalType": "uint256",
          "name": "value",
          "type": "uint256"
        }
      ],
      "name": "Transfer",
      "type": "event"
    },
    {
      "anonymous": false,
      "inputs": [
        {
          "indexed": true,
          "internalType": "address",
          "name": "_src",
          "type": "address"
        },
        {
          "indexed": false,
          "internalType": "uint256",
          "name": "_amount",
          "type": "uint256"
        }
      ],
      "name": "Withdrawal",
      "type": "event"
    },
    {
      "inputs": [],
      "name": "NO_EXTRA_GAS",
      "outputs": [
        {
          "internalType": "uint256",
          "name": "",
          "type": "uint256"
        }
      ],
      "stateMutability": "view",
      "type": "function"
    },
    {
      "inputs": [],
      "name": "PT_SEND",
      "outputs": [
        {
          "internalType": "uint16",
          "name": "",
          "type": "uint16"
        }
      ],
      "stateMutability": "view",
      "type": "function"
    },
    {
      "inputs": [
        {
          "internalType": "address",
          "name": "owner",
          "type": "address"
        },
        {
          "internalType": "address",
          "name": "spender",
          "type": "address"
        }
      ],
      "name": "allowance",
      "outputs": [
        {
          "internalType": "uint256",
          "name": "",
          "type": "uint256"
        }
      ],
      "stateMutability": "view",
      "type": "function"
    },
    {
      "inputs": [
        {
          "internalType": "address",
          "name": "spender",
          "type": "address"
        },
        {
          "internalType": "uint256",
          "name": "amount",
          "type": "uint256"
        }
      ],
      "name": "approve",
      "outputs": [
        {
          "internalType": "bool",
          "name": "",
          "type": "bool"
        }
      ],
      "stateMutability": "nonpayable",
      "type": "function"
    },
    {
      "inputs": [
        {
          "internalType": "address",
          "name": "account",
          "type": "address"
        }
      ],
      "name": "balanceOf",
      "outputs": [
        {
          "internalType": "uint256",
          "name": "",
          "type": "uint256"
        }
      ],
      "stateMutability": "view",
      "type": "function"
    },
    {
      "inputs": [],
      "name": "circulatingSupply",
      "outputs": [
        {
          "internalType": "uint256",
          "name": "",
          "type": "uint256"
        }
      ],
      "stateMutability": "view",
      "type": "function"
    },
    {
      "inputs": [],
      "name": "decimals",
      "outputs": [
        {
          "internalType": "uint8",
          "name": "",
          "type": "uint8"
        }
      ],
      "stateMutability": "view",
      "type": "function"
    },
    {
      "inputs": [
        {
          "internalType": "address",
          "name": "spender",
          "type": "address"
        },
        {
          "internalType": "uint256",
          "name": "subtractedValue",
          "type": "uint256"
        }
      ],
      "name": "decreaseAllowance",
      "outputs": [
        {
          "internalType": "bool",
          "name": "",
          "type": "bool"
        }
      ],
      "stateMutability": "nonpayable",
      "type": "function"
    },
    {
      "inputs": [],
      "name": "deposit",
      "outputs": [],
      "stateMutability": "payable",
      "type": "function"
    },
    {
      "inputs": [
        {
          "internalType": "uint16",
          "name": "_dstChainId",
          "type": "uint16"
        },
        {
          "internalType": "bytes",
          "name": "_toAddress",
          "type": "bytes"
        },
        {
          "internalType": "uint256",
          "name": "_amount",
          "type": "uint256"
        },
        {
          "internalType": "bool",
          "name": "_useZro",
          "type": "bool"
        },
        {
          "internalType": "bytes",
          "name": "_adapterParams",
          "type": "bytes"
        }
      ],
      "name": "estimateSendFee",
      "outputs": [
        {
          "internalType": "uint256",
          "name": "nativeFee",
          "type": "uint256"
        },
        {
          "internalType": "uint256",
          "name": "zroFee",
          "type": "uint256"
        }
      ],
      "stateMutability": "view",
      "type": "function"
    },
    {
      "inputs": [
        {
          "internalType": "uint16",
          "name": "",
          "type": "uint16"
        },
        {
          "internalType": "bytes",
          "name": "",
          "type": "bytes"
        },
        {
          "internalType": "uint64",
          "name": "",
          "type": "uint64"
        }
      ],
      "name": "failedMessages",
      "outputs": [
        {
          "internalType": "bytes32",
          "name": "",
          "type": "bytes32"
        }
      ],
      "stateMutability": "view",
      "type": "function"
    },
    {
      "inputs": [
        {
          "internalType": "uint16",
          "name": "_srcChainId",
          "type": "uint16"
        },
        {
          "internalType": "bytes",
          "name": "_srcAddress",
          "type": "bytes"
        }
      ],
      "name": "forceResumeReceive",
      "outputs": [],
      "stateMutability": "nonpayable",
      "type": "function"
    },
    {
      "inputs": [
        {
          "internalType": "uint16",
          "name": "_version",
          "type": "uint16"
        },
        {
          "internalType": "uint16",
          "name": "_chainId",
          "type": "uint16"
        },
        {
          "internalType": "address",
          "name": "",
          "type": "address"
        },
        {
          "internalType": "uint256",
          "name": "_configType",
          "type": "uint256"
        }
      ],
      "name": "getConfig",
      "outputs": [
        {
          "internalType": "bytes",
          "name": "",
          "type": "bytes"
        }
      ],
      "stateMutability": "view",
      "type": "function"
    },
    {
      "inputs": [
        {
          "internalType": "uint16",
          "name": "_remoteChainId",
          "type": "uint16"
        }
      ],
      "name": "getTrustedRemoteAddress",
      "outputs": [
        {
          "internalType": "bytes",
          "name": "",
          "type": "bytes"
        }
      ],
      "stateMutability": "view",
      "type": "function"
    },
    {
      "inputs": [
        {
          "internalType": "address",
          "name": "spender",
          "type": "address"
        },
        {
          "internalType": "uint256",
          "name": "addedValue",
          "type": "uint256"
        }
      ],
      "name": "increaseAllowance",
      "outputs": [
        {
          "internalType": "bool",
          "name": "",
          "type": "bool"
        }
      ],
      "stateMutability": "nonpayable",
      "type": "function"
    },
    {
      "inputs": [
        {
          "internalType": "uint16",
          "name": "_srcChainId",
          "type": "uint16"
        },
        {
          "internalType": "bytes",
          "name": "_srcAddress",
          "type": "bytes"
        }
      ],
      "name": "isTrustedRemote",
      "outputs": [
        {
          "internalType": "bool",
          "name": "",
          "type": "bool"
        }
      ],
      "stateMutability": "view",
      "type": "function"
    },
    {
      "inputs": [],
      "name": "lzEndpoint",
      "outputs": [
        {
          "internalType": "contract ILayerZeroEndpoint",
          "name": "",
          "type": "address"
        }
      ],
      "stateMutability": "view",
      "type": "function"
    },
    {
      "inputs": [
        {
          "internalType": "uint16",
          "name": "_srcChainId",
          "type": "uint16"
        },
        {
          "internalType": "bytes",
          "name": "_srcAddress",
          "type": "bytes"
        },
        {
          "internalType": "uint64",
          "name": "_nonce",
          "type": "uint64"
        },
        {
          "internalType": "bytes",
          "name": "_payload",
          "type": "bytes"
        }
      ],
      "name": "lzReceive",
      "outputs": [],
      "stateMutability": "nonpayable",
      "type": "function"
    },
    {
      "inputs": [
        {
          "internalType": "uint16",
          "name": "",
          "type": "uint16"
        },
        {
          "internalType": "uint16",
          "name": "",
          "type": "uint16"
        }
      ],
      "name": "minDstGasLookup",
      "outputs": [
        {
          "internalType": "uint256",
          "name": "",
          "type": "uint256"
        }
      ],
      "stateMutability": "view",
      "type": "function"
    },
    {
      "inputs": [],
      "name": "name",
      "outputs": [
        {
          "internalType": "string",
          "name": "",
          "type": "string"
        }
      ],
      "stateMutability": "view",
      "type": "function"
    },
    {
      "inputs": [
        {
          "internalType": "uint16",
          "name": "_srcChainId",
          "type": "uint16"
        },
        {
          "internalType": "bytes",
          "name": "_srcAddress",
          "type": "bytes"
        },
        {
          "internalType": "uint64",
          "name": "_nonce",
          "type": "uint64"
        },
        {
          "internalType": "bytes",
          "name": "_payload",
          "type": "bytes"
        }
      ],
      "name": "nonblockingLzReceive",
      "outputs": [],
      "stateMutability": "nonpayable",
      "type": "function"
    },
    {
      "inputs": [],
      "name": "owner",
      "outputs": [
        {
          "internalType": "address",
          "name": "",
          "type": "address"
        }
      ],
      "stateMutability": "view",
      "type": "function"
    },
    {
      "inputs": [],
      "name": "precrime",
      "outputs": [
        {
          "internalType": "address",
          "name": "",
          "type": "address"
        }
      ],
      "stateMutability": "view",
      "type": "function"
    },
    {
      "inputs": [],
      "name": "renounceOwnership",
      "outputs": [],
      "stateMutability": "nonpayable",
      "type": "function"
    },
    {
      "inputs": [
        {
          "internalType": "uint16",
          "name": "_srcChainId",
          "type": "uint16"
        },
        {
          "internalType": "bytes",
          "name": "_srcAddress",
          "type": "bytes"
        },
        {
          "internalType": "uint64",
          "name": "_nonce",
          "type": "uint64"
        },
        {
          "internalType": "bytes",
          "name": "_payload",
          "type": "bytes"
        }
      ],
      "name": "retryMessage",
      "outputs": [],
      "stateMutability": "payable",
      "type": "function"
    },
    {
      "inputs": [
        {
          "internalType": "address",
          "name": "_from",
          "type": "address"
        },
        {
          "internalType": "uint16",
          "name": "_dstChainId",
          "type": "uint16"
        },
        {
          "internalType": "bytes",
          "name": "_toAddress",
          "type": "bytes"
        },
        {
          "internalType": "uint256",
          "name": "_amount",
          "type": "uint256"
        },
        {
          "internalType": "address payable",
          "name": "_refundAddress",
          "type": "address"
        },
        {
          "internalType": "address",
          "name": "_zroPaymentAddress",
          "type": "address"
        },
        {
          "internalType": "bytes",
          "name": "_adapterParams",
          "type": "bytes"
        }
      ],
      "name": "sendFrom",
      "outputs": [],
      "stateMutability": "payable",
      "type": "function"
    },
    {
      "inputs": [
        {
          "internalType": "uint16",
          "name": "_version",
          "type": "uint16"
        },
        {
          "internalType": "uint16",
          "name": "_chainId",
          "type": "uint16"
        },
        {
          "internalType": "uint256",
          "name": "_configType",
          "type": "uint256"
        },
        {
          "internalType": "bytes",
          "name": "_config",
          "type": "bytes"
        }
      ],
      "name": "setConfig",
      "outputs": [],
      "stateMutability": "nonpayable",
      "type": "function"
    },
    {
      "inputs": [
        {
          "internalType": "uint16",
          "name": "_dstChainId",
          "type": "uint16"
        },
        {
          "internalType": "uint16",
          "name": "_packetType",
          "type": "uint16"
        },
        {
          "internalType": "uint256",
          "name": "_minGas",
          "type": "uint256"
        }
      ],
      "name": "setMinDstGas",
      "outputs": [],
      "stateMutability": "nonpayable",
      "type": "function"
    },
    {
      "inputs": [
        {
          "internalType": "address",
          "name": "_precrime",
          "type": "address"
        }
      ],
      "name": "setPrecrime",
      "outputs": [],
      "stateMutability": "nonpayable",
      "type": "function"
    },
    {
      "inputs": [
        {
          "internalType": "uint16",
          "name": "_version",
          "type": "uint16"
        }
      ],
      "name": "setReceiveVersion",
      "outputs": [],
      "stateMutability": "nonpayable",
      "type": "function"
    },
    {
      "inputs": [
        {
          "internalType": "uint16",
          "name": "_version",
          "type": "uint16"
        }
      ],
      "name": "setSendVersion",
      "outputs": [],
      "stateMutability": "nonpayable",
      "type": "function"
    },
    {
      "inputs": [
        {
          "internalType": "uint16",
          "name": "_srcChainId",
          "type": "uint16"
        },
        {
          "internalType": "bytes",
          "name": "_path",
          "type": "bytes"
        }
      ],
      "name": "setTrustedRemote",
      "outputs": [],
      "stateMutability": "nonpayable",
      "type": "function"
    },
    {
      "inputs": [
        {
          "internalType": "uint16",
          "name": "_remoteChainId",
          "type": "uint16"
        },
        {
          "internalType": "bytes",
          "name": "_remoteAddress",
          "type": "bytes"
        }
      ],
      "name": "setTrustedRemoteAddress",
      "outputs": [],
      "stateMutability": "nonpayable",
      "type": "function"
    },
    {
      "inputs": [
        {
          "internalType": "bool",
          "name": "_useCustomAdapterParams",
          "type": "bool"
        }
      ],
      "name": "setUseCustomAdapterParams",
      "outputs": [],
      "stateMutability": "nonpayable",
      "type": "function"
    },
    {
      "inputs": [
        {
          "internalType": "bytes4",
          "name": "interfaceId",
          "type": "bytes4"
        }
      ],
      "name": "supportsInterface",
      "outputs": [
        {
          "internalType": "bool",
          "name": "",
          "type": "bool"
        }
      ],
      "stateMutability": "view",
      "type": "function"
    },
    {
      "inputs": [],
      "name": "symbol",
      "outputs": [
        {
          "internalType": "string",
          "name": "",
          "type": "string"
        }
      ],
      "stateMutability": "view",
      "type": "function"
    },
    {
      "inputs": [],
      "name": "token",
      "outputs": [
        {
          "internalType": "address",
          "name": "",
          "type": "address"
        }
      ],
      "stateMutability": "view",
      "type": "function"
    },
    {
      "inputs": [],
      "name": "totalSupply",
      "outputs": [
        {
          "internalType": "uint256",
          "name": "",
          "type": "uint256"
        }
      ],
      "stateMutability": "view",
      "type": "function"
    },
    {
      "inputs": [
        {
          "internalType": "address",
          "name": "to",
          "type": "address"
        },
        {
          "internalType": "uint256",
          "name": "amount",
          "type": "uint256"
        }
      ],
      "name": "transfer",
      "outputs": [
        {
          "internalType": "bool",
          "name": "",
          "type": "bool"
        }
      ],
      "stateMutability": "nonpayable",
      "type": "function"
    },
    {
      "inputs": [
        {
          "internalType": "address",
          "name": "from",
          "type": "address"
        },
        {
          "internalType": "address",
          "name": "to",
          "type": "address"
        },
        {
          "internalType": "uint256",
          "name": "amount",
          "type": "uint256"
        }
      ],
      "name": "transferFrom",
      "outputs": [
        {
          "internalType": "bool",
          "name": "",
          "type": "bool"
        }
      ],
      "stateMutability": "nonpayable",
      "type": "function"
    },
    {
      "inputs": [
        {
          "internalType": "address",
          "name": "newOwner",
          "type": "address"
        }
      ],
      "name": "transferOwnership",
      "outputs": [],
      "stateMutability": "nonpayable",
      "type": "function"
    },
    {
      "inputs": [
        {
          "internalType": "uint16",
          "name": "",
          "type": "uint16"
        }
      ],
      "name": "trustedRemoteLookup",
      "outputs": [
        {
          "internalType": "bytes",
          "name": "",
          "type": "bytes"
        }
      ],
      "stateMutability": "view",
      "type": "function"
    },
    {
      "inputs": [],
      "name": "useCustomAdapterParams",
      "outputs": [
        {
          "internalType": "bool",
          "name": "",
          "type": "bool"
        }
      ],
      "stateMutability": "view",
      "type": "function"
    },
    {
      "inputs": [
        {
          "internalType": "uint256",
          "name": "_amount",
          "type": "uint256"
        }
      ],
      "name": "withdraw",
      "outputs": [],
      "stateMutability": "nonpayable",
      "type": "function"
    },
    {
      "stateMutability": "payable",
      "type": "receive"
    }
  ],
  "transactionHash": "0xa47a0f089ec483f5289daa0df00edd7d3703386e23dd6810f1ed06f24e67d1fb",
  "args": [
    "Native ETH",
    "ETH",
    "0x66A71Dcef29A0fFBDBE3c6a460a3B5BC225Cd675"
  ],
  "numDeployments": 1,
  "solcInputHash": "83e6ce1aa5f35b1c8344f020072876b9",
  "bytecode": "0x60a06040523480156200001157600080fd5b5060405162003b3638038062003b3683398101604081905262000034916200019d565b8282828282828080620000473362000088565b6001600160a01b03166080525060099050620000648382620002b9565b50600a620000738282620002b9565b50506001600b55506200038595505050505050565b600080546001600160a01b038381166001600160a01b0319831681178455604051919092169283917f8be0079c531659141344cd1fd0a4f28419497f9722a3daafe3b4186f6b6457e09190a35050565b634e487b7160e01b600052604160045260246000fd5b600082601f8301126200010057600080fd5b81516001600160401b03808211156200011d576200011d620000d8565b604051601f8301601f19908116603f01168101908282118183101715620001485762000148620000d8565b816040528381526020925086838588010111156200016557600080fd5b600091505b838210156200018957858201830151818301840152908201906200016a565b600093810190920192909252949350505050565b600080600060608486031215620001b357600080fd5b83516001600160401b0380821115620001cb57600080fd5b620001d987838801620000ee565b94506020860151915080821115620001f057600080fd5b50620001ff86828701620000ee565b604086015190935090506001600160a01b03811681146200021f57600080fd5b809150509250925092565b600181811c908216806200023f57607f821691505b6020821081036200026057634e487b7160e01b600052602260045260246000fd5b50919050565b601f821115620002b457600081815260208120601f850160051c810160208610156200028f5750805b601f850160051c820191505b81811015620002b0578281556001016200029b565b5050505b505050565b81516001600160401b03811115620002d557620002d5620000d8565b620002ed81620002e684546200022a565b8462000266565b602080601f8311600181146200032557600084156200030c5750858301515b600019600386901b1c1916600185901b178555620002b0565b600085815260208120601f198616915b82811015620003565788860151825594840194600190910190840162000335565b5085821015620003755787850151600019600388901b60f8161c191681555b5050505050600190811b01905550565b60805161375d620003d9600039600081816106d50152818161088301528181610ba201528181610c4301528181610ce101528181610fca01528181611503015281816119ab01526126a0015261375d6000f3fe60806040526004361061026a5760003560e01c80638cfd8f5c11610144578063cbed8b9c116100b6578063eab45d9c1161007a578063eab45d9c14610792578063eb8d72b7146107b2578063ed629c5c146107d2578063f2fde38b146107ec578063f5ecbdbc1461080c578063fc0c546a1461082c57600080fd5b8063cbed8b9c14610717578063d0e30db014610737578063d1deba1f1461073f578063dd62ed3e14610752578063df2a5b3b1461077257600080fd5b80639f38369a116101085780639f38369a14610643578063a457c2d714610663578063a6c3d16514610683578063a9059cbb146106a3578063b353aaa7146106c3578063baf3292d146106f757600080fd5b80638cfd8f5c1461058f5780638da5cb5b146105c75780639358928b146105f9578063950c8a741461060e57806395d89b411461062e57600080fd5b806339509351116101dd57806351905636116101a157806351905636146104a25780635b8c41e6146104b557806366ad5c8a1461050457806370a0823114610524578063715018a61461055a5780637533d7881461056f57600080fd5b806339509351146104055780633d8b38f61461042557806342d65a8d1461044557806344770515146104655780634c42899a1461047a57600080fd5b806310ddb1371161022f57806310ddb1371461033557806318160ddd1461035557806323b872dd146103745780632a205e3d146103945780632e1a7d4d146103c9578063313ce567146103e957600080fd5b80621d35671461027e57806301ffc9a71461029e57806306fdde03146102d357806307e0db17146102f5578063095ea7b31461031557600080fd5b366102795761027761083f565b005b600080fd5b34801561028a57600080fd5b50610277610299366004612ab8565b610880565b3480156102aa57600080fd5b506102be6102b9366004612b4d565b610ab1565b60405190151581526020015b60405180910390f35b3480156102df57600080fd5b506102e8610aef565b6040516102ca9190612bc7565b34801561030157600080fd5b50610277610310366004612bda565b610b81565b34801561032157600080fd5b506102be610330366004612c0c565b610c0a565b34801561034157600080fd5b50610277610350366004612bda565b610c22565b34801561036157600080fd5b506008545b6040519081526020016102ca565b34801561038057600080fd5b506102be61038f366004612c38565b610c7a565b3480156103a057600080fd5b506103b46103af366004612c89565b610c9e565b604080519283526020830191909152016102ca565b3480156103d557600080fd5b506102776103e4366004612d28565b610d71565b3480156103f557600080fd5b50604051601281526020016102ca565b34801561041157600080fd5b506102be610420366004612c0c565b610ebd565b34801561043157600080fd5b506102be610440366004612d41565b610edf565b34801561045157600080fd5b50610277610460366004612d41565b610fab565b34801561047157600080fd5b50610366600081565b34801561048657600080fd5b5061048f600081565b60405161ffff90911681526020016102ca565b6102776104b0366004612d95565b611031565b3480156104c157600080fd5b506103666104d0366004612ecb565b6004602090815260009384526040808520845180860184018051928152908401958401959095209452929052825290205481565b34801561051057600080fd5b5061027761051f366004612ab8565b6110b6565b34801561053057600080fd5b5061036661053f366004612f6d565b6001600160a01b031660009081526006602052604090205490565b34801561056657600080fd5b50610277611192565b34801561057b57600080fd5b506102e861058a366004612bda565b6111a6565b34801561059b57600080fd5b506103666105aa366004612f8a565b600260209081526000928352604080842090915290825290205481565b3480156105d357600080fd5b506000546001600160a01b03165b6040516001600160a01b0390911681526020016102ca565b34801561060557600080fd5b50610366611240565b34801561061a57600080fd5b506003546105e1906001600160a01b031681565b34801561063a57600080fd5b506102e8611250565b34801561064f57600080fd5b506102e861065e366004612bda565b61125f565b34801561066f57600080fd5b506102be61067e366004612c0c565b611375565b34801561068f57600080fd5b5061027761069e366004612d41565b6113f0565b3480156106af57600080fd5b506102be6106be366004612c0c565b611479565b3480156106cf57600080fd5b506105e17f000000000000000000000000000000000000000000000000000000000000000081565b34801561070357600080fd5b50610277610712366004612f6d565b611487565b34801561072357600080fd5b50610277610732366004612fc3565b6114e4565b61027761083f565b61027761074d366004612ab8565b61156e565b34801561075e57600080fd5b5061036661076d366004613035565b611784565b34801561077e57600080fd5b5061027761078d366004613063565b6117af565b34801561079e57600080fd5b506102776107ad366004613093565b611861565b3480156107be57600080fd5b506102776107cd366004612d41565b6118aa565b3480156107de57600080fd5b506005546102be9060ff1681565b3480156107f857600080fd5b50610277610807366004612f6d565b611904565b34801561081857600080fd5b506102e86108273660046130ae565b61197a565b34801561083857600080fd5b50306105e1565b6108493334611a2b565b60405134815233907fe1fffcc4923d04b559f4d29a8bfc6cda04eb5b0d3c460751c2402c5c5cc9109c9060200160405180910390a2565b337f00000000000000000000000000000000000000000000000000000000000000006001600160a01b0316146108fd5760405162461bcd60e51b815260206004820152601e60248201527f4c7a4170703a20696e76616c696420656e64706f696e742063616c6c6572000060448201526064015b60405180910390fd5b61ffff86166000908152600160205260408120805461091b906130ff565b80601f0160208091040260200160405190810160405280929190818152602001828054610947906130ff565b80156109945780601f1061096957610100808354040283529160200191610994565b820191906000526020600020905b81548152906001019060200180831161097757829003601f168201915b505050505090508051868690501480156109af575060008151115b80156109d75750805160208201206040516109cd9088908890613133565b6040518091039020145b610a325760405162461bcd60e51b815260206004820152602660248201527f4c7a4170703a20696e76616c696420736f757263652073656e64696e6720636f6044820152651b9d1c9858dd60d21b60648201526084016108f4565b610aa88787878080601f01602080910402602001604051908101604052809392919081815260200183838082843760009201919091525050604080516020601f8a018190048102820181019092528881528a935091508890889081908401838280828437600092019190915250611aec92505050565b50505050505050565b60006001600160e01b031982161580610ada57506001600160e01b031982166336372b0760e01b145b80610ae95750610ae982611b65565b92915050565b606060098054610afe906130ff565b80601f0160208091040260200160405190810160405280929190818152602001828054610b2a906130ff565b8015610b775780601f10610b4c57610100808354040283529160200191610b77565b820191906000526020600020905b815481529060010190602001808311610b5a57829003601f168201915b5050505050905090565b610b89611b9a565b6040516307e0db1760e01b815261ffff821660048201527f00000000000000000000000000000000000000000000000000000000000000006001600160a01b0316906307e0db17906024015b600060405180830381600087803b158015610bef57600080fd5b505af1158015610c03573d6000803e3d6000fd5b5050505050565b600033610c18818585611bf4565b5060019392505050565b610c2a611b9a565b6040516310ddb13760e01b815261ffff821660048201527f00000000000000000000000000000000000000000000000000000000000000006001600160a01b0316906310ddb13790602401610bd5565b600033610c88858285611d19565b610c93858585611d93565b506001949350505050565b600080600080898989604051602001610cba949392919061316c565b60408051601f198184030181529082905263040a7bb160e41b825291506001600160a01b037f000000000000000000000000000000000000000000000000000000000000000016906340a7bb1090610d20908d90309086908c908c908c9060040161319b565b6040805180830381865afa158015610d3c573d6000803e3d6000fd5b505050506040513d601f19601f82011682018060405250810190610d6091906131f1565b925092505097509795505050505050565b610d79611f3e565b33600090815260066020526040902054811115610dd85760405162461bcd60e51b815260206004820181905260248201527f4e61746976654f46543a20496e73756666696369656e742062616c616e63652e60448201526064016108f4565b610de23382611f97565b604051600090339083908381818185875af1925050503d8060008114610e24576040519150601f19603f3d011682016040523d82523d6000602084013e610e29565b606091505b5050905080610e7a5760405162461bcd60e51b815260206004820152601b60248201527f4e61746976654f46543a206661696c656420746f20756e77726170000000000060448201526064016108f4565b60405182815233907f7fcf532c15f0a6db0bd6d0e038bea71d30d808c7d98cb3bf7268a95bf5081b659060200160405180910390a250610eba6001600b55565b50565b600033610c18818585610ed08383611784565b610eda919061322b565b611bf4565b61ffff831660009081526001602052604081208054829190610f00906130ff565b80601f0160208091040260200160405190810160405280929190818152602001828054610f2c906130ff565b8015610f795780601f10610f4e57610100808354040283529160200191610f79565b820191906000526020600020905b815481529060010190602001808311610f5c57829003601f168201915b505050505090508383604051610f90929190613133565b60405180910390208180519060200120149150509392505050565b610fb3611b9a565b6040516342d65a8d60e01b81526001600160a01b037f000000000000000000000000000000000000000000000000000000000000000016906342d65a8d906110039086908690869060040161323e565b600060405180830381600087803b15801561101d57600080fd5b505af1158015610aa8573d6000803e3d6000fd5b6110ab898989898080601f01602080910402602001604051908101604052809392919081815260200183838082843760009201919091525050604080516020601f8a018190048102820181019092528881528c93508b92508a918a908a90819084018382808284376000920191909152506120c892505050565b505050505050505050565b3330146111145760405162461bcd60e51b815260206004820152602660248201527f4e6f6e626c6f636b696e674c7a4170703a2063616c6c6572206d7573742062656044820152650204c7a4170760d41b60648201526084016108f4565b61118a8686868080601f01602080910402602001604051908101604052809392919081815260200183838082843760009201919091525050604080516020601f89018190048102820181019092528781528993509150879087908190840183828082843760009201919091525061218e92505050565b505050505050565b61119a611b9a565b6111a460006121f5565b565b600160205260009081526040902080546111bf906130ff565b80601f01602080910402602001604051908101604052809291908181526020018280546111eb906130ff565b80156112385780601f1061120d57610100808354040283529160200191611238565b820191906000526020600020905b81548152906001019060200180831161121b57829003601f168201915b505050505081565b600061124b60085490565b905090565b6060600a8054610afe906130ff565b61ffff8116600090815260016020526040812080546060929190611282906130ff565b80601f01602080910402602001604051908101604052809291908181526020018280546112ae906130ff565b80156112fb5780601f106112d0576101008083540402835291602001916112fb565b820191906000526020600020905b8154815290600101906020018083116112de57829003601f168201915b5050505050905080516000036113535760405162461bcd60e51b815260206004820152601d60248201527f4c7a4170703a206e6f20747275737465642070617468207265636f726400000060448201526064016108f4565b61136e600060148351611366919061325c565b839190612245565b9392505050565b600033816113838286611784565b9050838110156113e35760405162461bcd60e51b815260206004820152602560248201527f45524332303a2064656372656173656420616c6c6f77616e63652062656c6f77604482015264207a65726f60d81b60648201526084016108f4565b610c938286868403611bf4565b6113f8611b9a565b81813060405160200161140d9392919061326f565b60408051601f1981840301815291815261ffff851660009081526001602052209061143890826132db565b507f8c0400cfe2d1199b1a725c78960bcc2a344d869b80590d0f2bd005db15a572ce83838360405161146c9392919061323e565b60405180910390a1505050565b600033610c18818585611d93565b61148f611b9a565b600380546001600160a01b0319166001600160a01b0383169081179091556040519081527f5db758e995a17ec1ad84bdef7e8c3293a0bd6179bcce400dff5d4c3d87db726b906020015b60405180910390a150565b6114ec611b9a565b6040516332fb62e760e21b81526001600160a01b037f0000000000000000000000000000000000000000000000000000000000000000169063cbed8b9c90611540908890889088908890889060040161339a565b600060405180830381600087803b15801561155a57600080fd5b505af11580156110ab573d6000803e3d6000fd5b61ffff861660009081526004602052604080822090516115919088908890613133565b90815260408051602092819003830190206001600160401b038716600090815292529020549050806116115760405162461bcd60e51b815260206004820152602360248201527f4e6f6e626c6f636b696e674c7a4170703a206e6f2073746f726564206d65737360448201526261676560e81b60648201526084016108f4565b808383604051611622929190613133565b6040518091039020146116815760405162461bcd60e51b815260206004820152602160248201527f4e6f6e626c6f636b696e674c7a4170703a20696e76616c6964207061796c6f616044820152601960fa1b60648201526084016108f4565b61ffff871660009081526004602052604080822090516116a49089908990613133565b90815260408051602092819003830181206001600160401b038916600090815290845282902093909355601f8801829004820283018201905286825261173c918991899089908190840183828082843760009201919091525050604080516020601f8a018190048102820181019092528881528a93509150889088908190840183828082843760009201919091525061218e92505050565b7fc264d91f3adc5588250e1551f547752ca0cfa8f6b530d243b9f9f4cab10ea8e587878787856040516117739594939291906133d3565b60405180910390a150505050505050565b6001600160a01b03918216600090815260076020908152604080832093909416825291909152205490565b6117b7611b9a565b600081116117ff5760405162461bcd60e51b81526020600482015260156024820152744c7a4170703a20696e76616c6964206d696e47617360581b60448201526064016108f4565b61ffff83811660008181526002602090815260408083209487168084529482529182902085905581519283528201929092529081018290527f9d5c7c0b934da8fefa9c7760c98383778a12dfbfc0c3b3106518f43fb9508ac09060600161146c565b611869611b9a565b6005805460ff19168215159081179091556040519081527f1584ad594a70cbe1e6515592e1272a987d922b097ead875069cebe8b40c004a4906020016114d9565b6118b2611b9a565b61ffff831660009081526001602052604090206118d082848361340e565b507ffa41487ad5d6728f0b19276fa1eddc16558578f5109fc39d2dc33c3230470dab83838360405161146c9392919061323e565b61190c611b9a565b6001600160a01b0381166119715760405162461bcd60e51b815260206004820152602660248201527f4f776e61626c653a206e6577206f776e657220697320746865207a65726f206160448201526564647265737360d01b60648201526084016108f4565b610eba816121f5565b604051633d7b2f6f60e21b815261ffff808616600483015284166024820152306044820152606481018290526060907f00000000000000000000000000000000000000000000000000000000000000006001600160a01b03169063f5ecbdbc90608401600060405180830381865afa1580156119fa573d6000803e3d6000fd5b505050506040513d6000823e601f3d908101601f19168201604052611a22919081019061351a565b95945050505050565b6001600160a01b038216611a815760405162461bcd60e51b815260206004820152601f60248201527f45524332303a206d696e7420746f20746865207a65726f20616464726573730060448201526064016108f4565b8060086000828254611a93919061322b565b90915550506001600160a01b0382166000818152600660209081526040808320805486019055518481527fddf252ad1be2c89b69c2b068fc378daa952ba7f163c4a11628f55a4df523b3ef910160405180910390a35050565b600080611b4f5a60966366ad5c8a60e01b89898989604051602401611b14949392919061354e565b60408051601f198184030181529190526020810180516001600160e01b03166001600160e01b03199093169290921790915230929190612352565b915091508161118a5761118a86868686856123dc565b60006001600160e01b03198216630a72677560e11b1480610ae957506301ffc9a760e01b6001600160e01b0319831614610ae9565b6000546001600160a01b031633146111a45760405162461bcd60e51b815260206004820181905260248201527f4f776e61626c653a2063616c6c6572206973206e6f7420746865206f776e657260448201526064016108f4565b6001600160a01b038316611c565760405162461bcd60e51b8152602060048201526024808201527f45524332303a20617070726f76652066726f6d20746865207a65726f206164646044820152637265737360e01b60648201526084016108f4565b6001600160a01b038216611cb75760405162461bcd60e51b815260206004820152602260248201527f45524332303a20617070726f766520746f20746865207a65726f206164647265604482015261737360f01b60648201526084016108f4565b6001600160a01b0383811660008181526007602090815260408083209487168084529482529182902085905590518481527f8c5be1e5ebec7d5bd14f71427d1e84f3dd0314c0f7b2291e5b200ac8c7c3b92591015b60405180910390a3505050565b6000611d258484611784565b90506000198114611d8d5781811015611d805760405162461bcd60e51b815260206004820152601d60248201527f45524332303a20696e73756666696369656e7420616c6c6f77616e636500000060448201526064016108f4565b611d8d8484848403611bf4565b50505050565b6001600160a01b038316611df75760405162461bcd60e51b815260206004820152602560248201527f45524332303a207472616e736665722066726f6d20746865207a65726f206164604482015264647265737360d81b60648201526084016108f4565b6001600160a01b038216611e595760405162461bcd60e51b815260206004820152602360248201527f45524332303a207472616e7366657220746f20746865207a65726f206164647260448201526265737360e81b60648201526084016108f4565b6001600160a01b03831660009081526006602052604090205481811015611ed15760405162461bcd60e51b815260206004820152602660248201527f45524332303a207472616e7366657220616d6f756e7420657863656564732062604482015265616c616e636560d01b60648201526084016108f4565b6001600160a01b0380851660008181526006602052604080822086860390559286168082529083902080548601905591517fddf252ad1be2c89b69c2b068fc378daa952ba7f163c4a11628f55a4df523b3ef90611f319086815260200190565b60405180910390a3611d8d565b6002600b5403611f905760405162461bcd60e51b815260206004820152601f60248201527f5265656e7472616e637947756172643a207265656e7472616e742063616c6c0060448201526064016108f4565b6002600b55565b6001600160a01b038216611ff75760405162461bcd60e51b815260206004820152602160248201527f45524332303a206275726e2066726f6d20746865207a65726f206164647265736044820152607360f81b60648201526084016108f4565b6001600160a01b0382166000908152600660205260409020548181101561206b5760405162461bcd60e51b815260206004820152602260248201527f45524332303a206275726e20616d6f756e7420657863656564732062616c616e604482015261636560f01b60648201526084016108f4565b6001600160a01b03831660008181526006602090815260408083208686039055600880548790039055518581529192917fddf252ad1be2c89b69c2b068fc378daa952ba7f163c4a11628f55a4df523b3ef9101611d0c565b505050565b60006120d688888888612479565b905060008087876040516020016120ef9392919061358c565b60408051601f1981840301815291905260055490915060ff16156121205761211b8860008560006124a3565b612180565b8251156121805760405162461bcd60e51b815260206004820152602860248201527f4e61746976654f46543a205f61646170746572506172616d73206d7573742062604482015267329032b6b83a3c9760c11b60648201526084016108f4565b6110ab888287878787612582565b602081015161ffff81166121ad576121a88585858561271c565b610c03565b60405162461bcd60e51b815260206004820152601c60248201527f4f4654436f72653a20756e6b6e6f776e207061636b657420747970650000000060448201526064016108f4565b600080546001600160a01b038381166001600160a01b0319831681178455604051919092169283917f8be0079c531659141344cd1fd0a4f28419497f9722a3daafe3b4186f6b6457e09190a35050565b60608161225381601f61322b565b10156122925760405162461bcd60e51b815260206004820152600e60248201526d736c6963655f6f766572666c6f7760901b60448201526064016108f4565b61229c828461322b565b845110156122e05760405162461bcd60e51b8152602060048201526011602482015270736c6963655f6f75744f66426f756e647360781b60448201526064016108f4565b6060821580156122ff5760405191506000825260208201604052612349565b6040519150601f8416801560200281840101858101878315602002848b0101015b81831015612338578051835260209283019201612320565b5050858452601f01601f1916604052505b50949350505050565b6000606060008060008661ffff166001600160401b0381111561237757612377612e5e565b6040519080825280601f01601f1916602001820160405280156123a1576020820181803683370190505b50905060008087516020890160008d8df191503d9250868311156123c3578692505b828152826000602083013e909890975095505050505050565b8180519060200120600460008761ffff1661ffff1681526020019081526020016000208560405161240d91906135b9565b9081526040805191829003602090810183206001600160401b0388166000908152915220919091557fe183f33de2837795525b4792ca4cd60535bd77c53b7e7030060bfcf5734d6b0c9061246a90879087908790879087906135d5565b60405180910390a15050505050565b6000336001600160a01b0386161461249a5761249585836127a6565b611a22565b611a228261284b565b60006124ae836128cb565b61ffff8087166000908152600260209081526040808320938916835292905290812054919250906124e090849061322b565b9050600081116125325760405162461bcd60e51b815260206004820152601a60248201527f4c7a4170703a206d696e4761734c696d6974206e6f742073657400000000000060448201526064016108f4565b8082101561118a5760405162461bcd60e51b815260206004820152601b60248201527f4c7a4170703a20676173206c696d697420697320746f6f206c6f77000000000060448201526064016108f4565b61ffff8616600090815260016020526040812080546125a0906130ff565b80601f01602080910402602001604051908101604052809291908181526020018280546125cc906130ff565b80156126195780601f106125ee57610100808354040283529160200191612619565b820191906000526020600020905b8154815290600101906020018083116125fc57829003601f168201915b50505050509050805160000361268a5760405162461bcd60e51b815260206004820152603060248201527f4c7a4170703a2064657374696e6174696f6e20636861696e206973206e6f742060448201526f61207472757374656420736f7572636560801b60648201526084016108f4565b60405162c5803160e81b81526001600160a01b037f0000000000000000000000000000000000000000000000000000000000000000169063c58031009084906126e1908b9086908c908c908c908c90600401613633565b6000604051808303818588803b1580156126fa57600080fd5b505af115801561270e573d6000803e3d6000fd5b505050505050505050505050565b60008082806020019051810190612733919061368d565b9093509150600090506127468382612927565b905061275387828461298c565b9150806001600160a01b03168761ffff167fbf551ec93859b170f9b2141bd9298bf3f64322c6f7beb2543a0cb669834118bf8460405161279591815260200190565b60405180910390a350505050505050565b6001600160a01b0382166000908152600660205260408120548281101561282a57826127d2348361322b565b10156127f05760405162461bcd60e51b81526004016108f4906136e6565b60006127fc828561325c565b90506128083382611a2b565b612813333083611d93565b8193508034612822919061325c565b92505061282e565b3491505b612839843385611d19565b612844843085611d93565b5092915050565b33600090815260066020526040812054828110156128b6578261286e348361322b565b101561288c5760405162461bcd60e51b81526004016108f4906136e6565b6000612898828561325c565b90506128a43382611a2b565b6128ae813461325c565b9250506128ba565b3491505b6128c5333085611d93565b50919050565b600060228251101561291f5760405162461bcd60e51b815260206004820152601c60248201527f4c7a4170703a20696e76616c69642061646170746572506172616d730000000060448201526064016108f4565b506022015190565b600061293482601461322b565b8351101561297c5760405162461bcd60e51b8152602060048201526015602482015274746f416464726573735f6f75744f66426f756e647360581b60448201526064016108f4565b500160200151600160601b900490565b60006129983083611f97565b6000836001600160a01b03168360405160006040518083038185875af1925050503d80600081146129e5576040519150601f19603f3d011682016040523d82523d6000602084013e6129ea565b606091505b5050905080612a3b5760405162461bcd60e51b815260206004820152601e60248201527f4e61746976654f46543a206661696c656420746f205f637265646974546f000060448201526064016108f4565b50909392505050565b61ffff81168114610eba57600080fd5b60008083601f840112612a6657600080fd5b5081356001600160401b03811115612a7d57600080fd5b602083019150836020828501011115612a9557600080fd5b9250929050565b80356001600160401b0381168114612ab357600080fd5b919050565b60008060008060008060808789031215612ad157600080fd5b8635612adc81612a44565b955060208701356001600160401b0380821115612af857600080fd5b612b048a838b01612a54565b9097509550859150612b1860408a01612a9c565b94506060890135915080821115612b2e57600080fd5b50612b3b89828a01612a54565b979a9699509497509295939492505050565b600060208284031215612b5f57600080fd5b81356001600160e01b03198116811461136e57600080fd5b60005b83811015612b92578181015183820152602001612b7a565b50506000910152565b60008151808452612bb3816020860160208601612b77565b601f01601f19169290920160200192915050565b60208152600061136e6020830184612b9b565b600060208284031215612bec57600080fd5b813561136e81612a44565b6001600160a01b0381168114610eba57600080fd5b60008060408385031215612c1f57600080fd5b8235612c2a81612bf7565b946020939093013593505050565b600080600060608486031215612c4d57600080fd5b8335612c5881612bf7565b92506020840135612c6881612bf7565b929592945050506040919091013590565b80358015158114612ab357600080fd5b600080600080600080600060a0888a031215612ca457600080fd5b8735612caf81612a44565b965060208801356001600160401b0380821115612ccb57600080fd5b612cd78b838c01612a54565b909850965060408a01359550869150612cf260608b01612c79565b945060808a0135915080821115612d0857600080fd5b50612d158a828b01612a54565b989b979a50959850939692959293505050565b600060208284031215612d3a57600080fd5b5035919050565b600080600060408486031215612d5657600080fd5b8335612d6181612a44565b925060208401356001600160401b03811115612d7c57600080fd5b612d8886828701612a54565b9497909650939450505050565b600080600080600080600080600060e08a8c031215612db357600080fd5b8935612dbe81612bf7565b985060208a0135612dce81612a44565b975060408a01356001600160401b0380821115612dea57600080fd5b612df68d838e01612a54565b909950975060608c0135965060808c01359150612e1282612bf7565b90945060a08b013590612e2482612bf7565b90935060c08b01359080821115612e3a57600080fd5b50612e478c828d01612a54565b915080935050809150509295985092959850929598565b634e487b7160e01b600052604160045260246000fd5b604051601f8201601f191681016001600160401b0381118282101715612e9c57612e9c612e5e565b604052919050565b60006001600160401b03821115612ebd57612ebd612e5e565b50601f01601f191660200190565b600080600060608486031215612ee057600080fd5b8335612eeb81612a44565b925060208401356001600160401b03811115612f0657600080fd5b8401601f81018613612f1757600080fd5b8035612f2a612f2582612ea4565b612e74565b818152876020838501011115612f3f57600080fd5b81602084016020830137600060208383010152809450505050612f6460408501612a9c565b90509250925092565b600060208284031215612f7f57600080fd5b813561136e81612bf7565b60008060408385031215612f9d57600080fd5b8235612fa881612a44565b91506020830135612fb881612a44565b809150509250929050565b600080600080600060808688031215612fdb57600080fd5b8535612fe681612a44565b94506020860135612ff681612a44565b93506040860135925060608601356001600160401b0381111561301857600080fd5b61302488828901612a54565b969995985093965092949392505050565b6000806040838503121561304857600080fd5b823561305381612bf7565b91506020830135612fb881612bf7565b60008060006060848603121561307857600080fd5b833561308381612a44565b92506020840135612c6881612a44565b6000602082840312156130a557600080fd5b61136e82612c79565b600080600080608085870312156130c457600080fd5b84356130cf81612a44565b935060208501356130df81612a44565b925060408501356130ef81612bf7565b9396929550929360600135925050565b600181811c9082168061311357607f821691505b6020821081036128c557634e487b7160e01b600052602260045260246000fd5b8183823760009101908152919050565b81835281816020850137506000828201602090810191909152601f909101601f19169091010190565b61ffff8516815260606020820152600061318a606083018587613143565b905082604083015295945050505050565b61ffff871681526001600160a01b038616602082015260a0604082018190526000906131c990830187612b9b565b851515606084015282810360808401526131e4818587613143565b9998505050505050505050565b6000806040838503121561320457600080fd5b505080516020909101519092909150565b634e487b7160e01b600052601160045260246000fd5b80820180821115610ae957610ae9613215565b61ffff84168152604060208201526000611a22604083018486613143565b81810381811115610ae957610ae9613215565b8284823760609190911b6bffffffffffffffffffffffff19169101908152601401919050565b601f8211156120c357600081815260208120601f850160051c810160208610156132bc5750805b601f850160051c820191505b8181101561118a578281556001016132c8565b81516001600160401b038111156132f4576132f4612e5e565b6133088161330284546130ff565b84613295565b602080601f83116001811461333d57600084156133255750858301515b600019600386901b1c1916600185901b17855561118a565b600085815260208120601f198616915b8281101561336c5788860151825594840194600190910190840161334d565b508582101561338a5787850151600019600388901b60f8161c191681555b5050505050600190811b01905550565b600061ffff8088168352808716602084015250846040830152608060608301526133c8608083018486613143565b979650505050505050565b61ffff861681526080602082015260006133f1608083018688613143565b6001600160401b0394909416604083015250606001529392505050565b6001600160401b0383111561342557613425612e5e565b6134398361343383546130ff565b83613295565b6000601f84116001811461346d57600085156134555750838201355b600019600387901b1c1916600186901b178355610c03565b600083815260209020601f19861690835b8281101561349e578685013582556020948501946001909201910161347e565b50868210156134bb5760001960f88860031b161c19848701351681555b505060018560011b0183555050505050565b600082601f8301126134de57600080fd5b81516134ec612f2582612ea4565b81815284602083860101111561350157600080fd5b613512826020830160208701612b77565b949350505050565b60006020828403121561352c57600080fd5b81516001600160401b0381111561354257600080fd5b613512848285016134cd565b61ffff8516815260806020820152600061356b6080830186612b9b565b6001600160401b038516604084015282810360608401526133c88185612b9b565b61ffff841681526060602082015260006135a96060830185612b9b565b9050826040830152949350505050565b600082516135cb818460208701612b77565b9190910192915050565b61ffff8616815260a0602082015260006135f260a0830187612b9b565b6001600160401b038616604084015282810360608401526136138186612b9b565b905082810360808401526136278185612b9b565b98975050505050505050565b61ffff8716815260c06020820152600061365060c0830188612b9b565b82810360408401526136628188612b9b565b6001600160a01b0387811660608601528616608085015283810360a085015290506131e48185612b9b565b6000806000606084860312156136a257600080fd5b83516136ad81612a44565b60208501519093506001600160401b038111156136c957600080fd5b6136d5868287016134cd565b925050604084015190509250925092565b60208082526021908201527f4e61746976654f46543a20496e73756666696369656e74206d73672e76616c756040820152606560f81b60608201526080019056fea264697066735822122015d688712c8ab58c0f7e450882170d2042f8721648ded71a02aae5a8335ce2b564736f6c63430008110033",
  "devdoc": {
    "kind": "dev",
    "methods": {
      "allowance(address,address)": {
        "details": "See {IERC20-allowance}."
      },
      "approve(address,uint256)": {
        "details": "See {IERC20-approve}. NOTE: If `amount` is the maximum `uint256`, the allowance is not updated on `transferFrom`. This is semantically equivalent to an infinite approval. Requirements: - `spender` cannot be the zero address."
      },
      "balanceOf(address)": {
        "details": "See {IERC20-balanceOf}."
      },
      "circulatingSupply()": {
        "details": "returns the circulating amount of tokens on current chain"
      },
      "decimals()": {
        "details": "Returns the number of decimals used to get its user representation. For example, if `decimals` equals `2`, a balance of `505` tokens should be displayed to a user as `5.05` (`505 / 10 ** 2`). Tokens usually opt for a value of 18, imitating the relationship between Ether and Wei. This is the value {ERC20} uses, unless this function is overridden; NOTE: This information is only used for _display_ purposes: it in no way affects any of the arithmetic of the contract, including {IERC20-balanceOf} and {IERC20-transfer}."
      },
      "decreaseAllowance(address,uint256)": {
        "details": "Atomically decreases the allowance granted to `spender` by the caller. This is an alternative to {approve} that can be used as a mitigation for problems described in {IERC20-approve}. Emits an {Approval} event indicating the updated allowance. Requirements: - `spender` cannot be the zero address. - `spender` must have allowance for the caller of at least `subtractedValue`."
      },
      "estimateSendFee(uint16,bytes,uint256,bool,bytes)": {
        "details": "estimate send token `_tokenId` to (`_dstChainId`, `_toAddress`) _dstChainId - L0 defined chain id to send tokens too _toAddress - dynamic bytes array which contains the address to whom you are sending tokens to on the dstChain _amount - amount of the tokens to transfer _useZro - indicates to use zro to pay L0 fees _adapterParam - flexible bytes array to indicate messaging adapter services in L0"
      },
      "increaseAllowance(address,uint256)": {
        "details": "Atomically increases the allowance granted to `spender` by the caller. This is an alternative to {approve} that can be used as a mitigation for problems described in {IERC20-approve}. Emits an {Approval} event indicating the updated allowance. Requirements: - `spender` cannot be the zero address."
      },
      "name()": {
        "details": "Returns the name of the token."
      },
      "owner()": {
        "details": "Returns the address of the current owner."
      },
      "renounceOwnership()": {
        "details": "Leaves the contract without owner. It will not be possible to call `onlyOwner` functions anymore. Can only be called by the current owner. NOTE: Renouncing ownership will leave the contract without an owner, thereby removing any functionality that is only available to the owner."
      },
      "symbol()": {
        "details": "Returns the symbol of the token, usually a shorter version of the name."
      },
      "token()": {
        "details": "returns the address of the ERC20 token"
      },
      "totalSupply()": {
        "details": "See {IERC20-totalSupply}."
      },
      "transfer(address,uint256)": {
        "details": "See {IERC20-transfer}. Requirements: - `to` cannot be the zero address. - the caller must have a balance of at least `amount`."
      },
      "transferFrom(address,address,uint256)": {
        "details": "See {IERC20-transferFrom}. Emits an {Approval} event indicating the updated allowance. This is not required by the EIP. See the note at the beginning of {ERC20}. NOTE: Does not update the allowance if the current allowance is the maximum `uint256`. Requirements: - `from` and `to` cannot be the zero address. - `from` must have a balance of at least `amount`. - the caller must have allowance for ``from``'s tokens of at least `amount`."
      },
      "transferOwnership(address)": {
        "details": "Transfers ownership of the contract to a new account (`newOwner`). Can only be called by the current owner."
      }
    },
    "version": 1
  },
  "userdoc": {
    "kind": "user",
    "methods": {},
    "version": 1
  },
  "storageLayout": {
    "storage": [
      {
        "astId": 3897,
        "contract": "@layerzerolabs/solidity-examples/contracts/token/oft/extension/NativeOFT.sol:NativeOFT",
        "label": "_owner",
        "offset": 0,
        "slot": "0",
        "type": "t_address"
      },
      {
        "astId": 437,
        "contract": "@layerzerolabs/solidity-examples/contracts/token/oft/extension/NativeOFT.sol:NativeOFT",
        "label": "trustedRemoteLookup",
        "offset": 0,
        "slot": "1",
        "type": "t_mapping(t_uint16,t_bytes_storage)"
      },
      {
        "astId": 443,
        "contract": "@layerzerolabs/solidity-examples/contracts/token/oft/extension/NativeOFT.sol:NativeOFT",
        "label": "minDstGasLookup",
        "offset": 0,
        "slot": "2",
        "type": "t_mapping(t_uint16,t_mapping(t_uint16,t_uint256))"
      },
      {
        "astId": 445,
        "contract": "@layerzerolabs/solidity-examples/contracts/token/oft/extension/NativeOFT.sol:NativeOFT",
        "label": "precrime",
        "offset": 0,
        "slot": "3",
        "type": "t_address"
      },
      {
        "astId": 930,
        "contract": "@layerzerolabs/solidity-examples/contracts/token/oft/extension/NativeOFT.sol:NativeOFT",
        "label": "failedMessages",
        "offset": 0,
        "slot": "4",
        "type": "t_mapping(t_uint16,t_mapping(t_bytes_memory_ptr,t_mapping(t_uint64,t_bytes32)))"
      },
      {
        "astId": 2712,
        "contract": "@layerzerolabs/solidity-examples/contracts/token/oft/extension/NativeOFT.sol:NativeOFT",
        "label": "useCustomAdapterParams",
        "offset": 0,
        "slot": "5",
        "type": "t_bool"
      },
      {
        "astId": 4072,
        "contract": "@layerzerolabs/solidity-examples/contracts/token/oft/extension/NativeOFT.sol:NativeOFT",
        "label": "_balances",
        "offset": 0,
        "slot": "6",
        "type": "t_mapping(t_address,t_uint256)"
      },
      {
        "astId": 4078,
        "contract": "@layerzerolabs/solidity-examples/contracts/token/oft/extension/NativeOFT.sol:NativeOFT",
        "label": "_allowances",
        "offset": 0,
        "slot": "7",
        "type": "t_mapping(t_address,t_mapping(t_address,t_uint256))"
      },
      {
        "astId": 4080,
        "contract": "@layerzerolabs/solidity-examples/contracts/token/oft/extension/NativeOFT.sol:NativeOFT",
        "label": "_totalSupply",
        "offset": 0,
        "slot": "8",
        "type": "t_uint256"
      },
      {
        "astId": 4082,
        "contract": "@layerzerolabs/solidity-examples/contracts/token/oft/extension/NativeOFT.sol:NativeOFT",
        "label": "_name",
        "offset": 0,
        "slot": "9",
        "type": "t_string_storage"
      },
      {
        "astId": 4084,
        "contract": "@layerzerolabs/solidity-examples/contracts/token/oft/extension/NativeOFT.sol:NativeOFT",
        "label": "_symbol",
        "offset": 0,
        "slot": "10",
        "type": "t_string_storage"
      },
      {
        "astId": 4013,
        "contract": "@layerzerolabs/solidity-examples/contracts/token/oft/extension/NativeOFT.sol:NativeOFT",
        "label": "_status",
        "offset": 0,
        "slot": "11",
        "type": "t_uint256"
      }
    ],
    "types": {
      "t_address": {
        "encoding": "inplace",
        "label": "address",
        "numberOfBytes": "20"
      },
      "t_bool": {
        "encoding": "inplace",
        "label": "bool",
        "numberOfBytes": "1"
      },
      "t_bytes32": {
        "encoding": "inplace",
        "label": "bytes32",
        "numberOfBytes": "32"
      },
      "t_bytes_memory_ptr": {
        "encoding": "bytes",
        "label": "bytes",
        "numberOfBytes": "32"
      },
      "t_bytes_storage": {
        "encoding": "bytes",
        "label": "bytes",
        "numberOfBytes": "32"
      },
      "t_mapping(t_address,t_mapping(t_address,t_uint256))": {
        "encoding": "mapping",
        "key": "t_address",
        "label": "mapping(address => mapping(address => uint256))",
        "numberOfBytes": "32",
        "value": "t_mapping(t_address,t_uint256)"
      },
      "t_mapping(t_address,t_uint256)": {
        "encoding": "mapping",
        "key": "t_address",
        "label": "mapping(address => uint256)",
        "numberOfBytes": "32",
        "value": "t_uint256"
      },
      "t_mapping(t_bytes_memory_ptr,t_mapping(t_uint64,t_bytes32))": {
        "encoding": "mapping",
        "key": "t_bytes_memory_ptr",
        "label": "mapping(bytes => mapping(uint64 => bytes32))",
        "numberOfBytes": "32",
        "value": "t_mapping(t_uint64,t_bytes32)"
      },
      "t_mapping(t_uint16,t_bytes_storage)": {
        "encoding": "mapping",
        "key": "t_uint16",
        "label": "mapping(uint16 => bytes)",
        "numberOfBytes": "32",
        "value": "t_bytes_storage"
      },
      "t_mapping(t_uint16,t_mapping(t_bytes_memory_ptr,t_mapping(t_uint64,t_bytes32)))": {
        "encoding": "mapping",
        "key": "t_uint16",
        "label": "mapping(uint16 => mapping(bytes => mapping(uint64 => bytes32)))",
        "numberOfBytes": "32",
        "value": "t_mapping(t_bytes_memory_ptr,t_mapping(t_uint64,t_bytes32))"
      },
      "t_mapping(t_uint16,t_mapping(t_uint16,t_uint256))": {
        "encoding": "mapping",
        "key": "t_uint16",
        "label": "mapping(uint16 => mapping(uint16 => uint256))",
        "numberOfBytes": "32",
        "value": "t_mapping(t_uint16,t_uint256)"
      },
      "t_mapping(t_uint16,t_uint256)": {
        "encoding": "mapping",
        "key": "t_uint16",
        "label": "mapping(uint16 => uint256)",
        "numberOfBytes": "32",
        "value": "t_uint256"
      },
      "t_mapping(t_uint64,t_bytes32)": {
        "encoding": "mapping",
        "key": "t_uint64",
        "label": "mapping(uint64 => bytes32)",
        "numberOfBytes": "32",
        "value": "t_bytes32"
      },
      "t_string_storage": {
        "encoding": "bytes",
        "label": "string",
        "numberOfBytes": "32"
      },
      "t_uint16": {
        "encoding": "inplace",
        "label": "uint16",
        "numberOfBytes": "2"
      },
      "t_uint256": {
        "encoding": "inplace",
        "label": "uint256",
        "numberOfBytes": "32"
      },
      "t_uint64": {
        "encoding": "inplace",
        "label": "uint64",
        "numberOfBytes": "8"
      }
    }
  }
}