{
  "address": "0x0A9f824C05A74F577A536A8A0c673183a872Dff4",
  "abi": [
    {
      "inputs": [
        {
          "internalType": "address",
          "name": "_oft",
          "type": "address"
        },
        {
          "internalType": "address",
          "name": "_nativeOft",
          "type": "address"
        },
        {
          "internalType": "address",
          "name": "_uniswapRouter",
          "type": "address"
        }
      ],
      "stateMutability": "nonpayable",
      "type": "constructor"
    },
    {
      "inputs": [
        {
          "internalType": "uint256",
          "name": "amountIn",
          "type": "uint256"
        },
        {
          "internalType": "uint16",
          "name": "dstChainId",
          "type": "uint16"
        },
        {
          "internalType": "address",
          "name": "to",
          "type": "address"
        },
        {
          "internalType": "address payable",
          "name": "refundAddress",
          "type": "address"
        },
        {
          "internalType": "address",
          "name": "zroPaymentAddress",
          "type": "address"
        },
        {
          "internalType": "bytes",
          "name": "adapterParams",
          "type": "bytes"
        }
      ],
      "name": "bridge",
      "outputs": [],
      "stateMutability": "payable",
      "type": "function"
    },
    {
      "inputs": [],
      "name": "nativeOft",
      "outputs": [
        {
          "internalType": "contract INativeOFT",
          "name": "",
          "type": "address"
        }
      ],
      "stateMutability": "view",
      "type": "function"
    },
    {
      "inputs": [],
      "name": "oft",
      "outputs": [
        {
          "internalType": "contract IOFTCore",
          "name": "",
          "type": "address"
        }
      ],
      "stateMutability": "view",
      "type": "function"
    },
    {
      "inputs": [
        {
          "internalType": "uint256",
          "name": "amountIn",
          "type": "uint256"
        },
        {
          "internalType": "uint256",
          "name": "amountOutMin",
          "type": "uint256"
        },
        {
          "internalType": "uint16",
          "name": "dstChainId",
          "type": "uint16"
        },
        {
          "internalType": "address",
          "name": "to",
          "type": "address"
        },
        {
          "internalType": "address payable",
          "name": "refundAddress",
          "type": "address"
        },
        {
          "internalType": "address",
          "name": "zroPaymentAddress",
          "type": "address"
        },
        {
          "internalType": "bytes",
          "name": "adapterParams",
          "type": "bytes"
        }
      ],
      "name": "swapAndBridge",
      "outputs": [],
      "stateMutability": "payable",
      "type": "function"
    },
    {
      "inputs": [],
      "name": "uniswapRouter",
      "outputs": [
        {
          "internalType": "contract IUniswapV2Router02",
          "name": "",
          "type": "address"
        }
      ],
      "stateMutability": "view",
      "type": "function"
    }
  ],
  "transactionHash": "0xc8e341d1335d7faa22cf5b0ca96ab5ef38e26e2e94ca2e5b935c625951fe744e",
  "args": [
    "0xdD69DB25F6D620A7baD3023c5d32761D353D3De9",
    "0x4f7A67464B5976d7547c860109e4432d50AfB38e",
    "0x7a250d5630B4cF539739dF2C5dAcb4c659F2488D"
  ],
  "numDeployments": 1,
  "solcInputHash": "37b8e878050b9e9599a44141df615897",
  "bytecode": "0x60e060405234801561001057600080fd5b50604051610cd1380380610cd183398101604081905261002f916101a7565b6001600160a01b0383166100965760405162461bcd60e51b8152602060048201526024808201527f537761707061626c654272696467653a20696e76616c6964204f4654206164646044820152637265737360e01b60648201526084015b60405180910390fd5b6001600160a01b0382166101005760405162461bcd60e51b815260206004820152602b60248201527f537761707061626c654272696467653a20696e76616c6964204e61746976652060448201526a4f4654206164647265737360a81b606482015260840161008d565b6001600160a01b03811661016e5760405162461bcd60e51b815260206004820152602f60248201527f537761707061626c654272696467653a20696e76616c696420556e697377617060448201526e20526f75746572206164647265737360881b606482015260840161008d565b6001600160a01b0392831660805290821660a0521660c0526101ea565b80516001600160a01b03811681146101a257600080fd5b919050565b6000806000606084860312156101bc57600080fd5b6101c58461018b565b92506101d36020850161018b565b91506101e16040850161018b565b90509250925092565b60805160a05160c051610a916102406000396000818160b1015281816101a101526102b001526000818160610152818161046901526104dd01526000818160e50152818161025601526103400152610a916000f3fe60806040526004361061004a5760003560e01c80631ab425a01461004f578063735de9f71461009f5780639b5215f6146100d3578063ae30f6ee14610107578063b73704351461011c575b600080fd5b34801561005b57600080fd5b506100837f000000000000000000000000000000000000000000000000000000000000000081565b6040516001600160a01b03909116815260200160405180910390f35b3480156100ab57600080fd5b506100837f000000000000000000000000000000000000000000000000000000000000000081565b3480156100df57600080fd5b506100837f000000000000000000000000000000000000000000000000000000000000000081565b61011a610115366004610623565b61012f565b005b61011a61012a3660046106c2565b610421565b6001600160a01b03851661015e5760405162461bcd60e51b815260040161015590610758565b60405180910390fd5b8734101561017e5760405162461bcd60e51b81526004016101559061079b565b6040805160028082526060820183526000926020830190803683370190505090507f00000000000000000000000000000000000000000000000000000000000000006001600160a01b031663ad5c46486040518163ffffffff1660e01b8152600401602060405180830381865afa1580156101fd573d6000803e3d6000fd5b505050506040513d601f19601f8201168201806040525081019061022191906107f7565b816000815181106102345761023461081b565b60200260200101906001600160a01b031690816001600160a01b0316815250507f0000000000000000000000000000000000000000000000000000000000000000816001815181106102885761028861081b565b6001600160a01b039283166020918202929092010152604051637ff36ab560e01b81526000917f00000000000000000000000000000000000000000000000000000000000000001690637ff36ab5908c906102ed908d90879030904290600401610831565b60006040518083038185885af115801561030b573d6000803e3d6000fd5b50505050506040513d6000823e601f3d908101601f19168201604052610334919081019061089b565b90506001600160a01b037f000000000000000000000000000000000000000000000000000000000000000016635190563661036f8c34610959565b6040516bffffffffffffffffffffffff1960608c901b16602082015230908c90603401604051602081830303815290604052866001815181106103b4576103b461081b565b60200260200101518c8c8c8c6040518a63ffffffff1660e01b81526004016103e39897969594939291906109a9565b6000604051808303818588803b1580156103fc57600080fd5b505af1158015610410573d6000803e3d6000fd5b505050505050505050505050505050565b6001600160a01b0385166104475760405162461bcd60e51b815260040161015590610758565b863410156104675760405162461bcd60e51b81526004016101559061079b565b7f00000000000000000000000000000000000000000000000000000000000000006001600160a01b031663d0e30db0886040518263ffffffff1660e01b81526004016000604051808303818588803b1580156104c257600080fd5b505af11580156104d6573d6000803e3d6000fd5b50505050507f00000000000000000000000000000000000000000000000000000000000000006001600160a01b0316635190563688346105169190610959565b6040516bffffffffffffffffffffffff1960608a901b16602082015230908a906034016040516020818303038152906040528c8a8a8a8a6040518a63ffffffff1660e01b81526004016105709897969594939291906109a9565b6000604051808303818588803b15801561058957600080fd5b505af115801561059d573d6000803e3d6000fd5b505050505050505050505050565b803561ffff811681146105bd57600080fd5b919050565b6001600160a01b03811681146105d757600080fd5b50565b60008083601f8401126105ec57600080fd5b50813567ffffffffffffffff81111561060457600080fd5b60208301915083602082850101111561061c57600080fd5b9250929050565b60008060008060008060008060e0898b03121561063f57600080fd5b883597506020890135965061065660408a016105ab565b95506060890135610666816105c2565b94506080890135610676816105c2565b935060a0890135610686816105c2565b925060c089013567ffffffffffffffff8111156106a257600080fd5b6106ae8b828c016105da565b999c989b5096995094979396929594505050565b600080600080600080600060c0888a0312156106dd57600080fd5b873596506106ed602089016105ab565b955060408801356106fd816105c2565b9450606088013561070d816105c2565b9350608088013561071d816105c2565b925060a088013567ffffffffffffffff81111561073957600080fd5b6107458a828b016105da565b989b979a50959850939692959293505050565b60208082526023908201527f537761707061626c654272696467653a20696e76616c696420746f206164647260408201526265737360e81b606082015260800190565b60208082526026908201527f537761707061626c654272696467653a206e6f7420656e6f7567682076616c7560408201526519481cd95b9d60d21b606082015260800190565b634e487b7160e01b600052604160045260246000fd5b60006020828403121561080957600080fd5b8151610814816105c2565b9392505050565b634e487b7160e01b600052603260045260246000fd5b600060808201868352602060808185015281875180845260a086019150828901935060005b8181101561087b5784516001600160a01b031683529383019391830191600101610856565b50506001600160a01b039690961660408501525050506060015292915050565b600060208083850312156108ae57600080fd5b825167ffffffffffffffff808211156108c657600080fd5b818501915085601f8301126108da57600080fd5b8151818111156108ec576108ec6107e1565b8060051b604051601f19603f83011681018181108582111715610911576109116107e1565b60405291825284820192508381018501918883111561092f57600080fd5b938501935b8285101561094d57845184529385019392850192610934565b98975050505050505050565b8181038181111561097a57634e487b7160e01b600052601160045260246000fd5b92915050565b81835281816020850137506000828201602090810191909152601f909101601f19169091010190565b60018060a01b03891681526000602061ffff8a168184015260e0604084015288518060e085015260005b818110156109f0578a8101830151858201610100015282016109d3565b5061010091506000828286010152601f19601f82011684019050886060850152610a2560808501896001600160a01b03169052565b6001600160a01b03871660a0850152818482030160c0850152610a4b8282018688610980565b9c9b50505050505050505050505056fea26469706673582212200867cb896c298d9d55be0aafdfbc2f879fe98e458181f05f6f6ea1b1c3628a5364736f6c63430008110033",
  "devdoc": {
    "kind": "dev",
    "methods": {},
    "version": 1
  },
  "userdoc": {
    "kind": "user",
    "methods": {},
    "version": 1
  },
  "storageLayout": {
    "storage": [],
    "types": null
  }
}