{
  "address": "0x4f7A67464B5976d7547c860109e4432d50AfB38e",
  "abi": [
    {
      "inputs": [
        {
          "internalType": "string",
          "name": "_name",
          "type": "string"
        },
        {
          "internalType": "string",
          "name": "_symbol",
          "type": "string"
        },
        {
          "internalType": "address",
          "name": "_lzEndpoint",
          "type": "address"
        },
        {
          "internalType": "uint256",
          "name": "_minSendAmount",
          "type": "uint256"
        }
      ],
      "stateMutability": "nonpayable",
      "type": "constructor"
    },
    {
      "anonymous": false,
      "inputs": [
        {
          "indexed": true,
          "internalType": "address",
          "name": "owner",
          "type": "address"
        },
        {
          "indexed": true,
          "internalType": "address",
          "name": "spender",
          "type": "address"
        },
        {
          "indexed": false,
          "internalType": "uint256",
          "name": "value",
          "type": "uint256"
        }
      ],
      "name": "Approval",
      "type": "event"
    },
    {
      "anonymous": false,
      "inputs": [
        {
          "indexed": true,
          "internalType": "address",
          "name": "_dst",
          "type": "address"
        },
        {
          "indexed": false,
          "internalType": "uint256",
          "name": "_amount",
          "type": "uint256"
        }
      ],
      "name": "Deposit",
      "type": "event"
    },
    {
      "anonymous": false,
      "inputs": [
        {
          "indexed": false,
          "internalType": "uint16",
          "name": "_srcChainId",
          "type": "uint16"
        },
        {
          "indexed": false,
          "internalType": "bytes",
          "name": "_srcAddress",
          "type": "bytes"
        },
        {
          "indexed": false,
          "internalType": "uint64",
          "name": "_nonce",
          "type": "uint64"
        },
        {
          "indexed": false,
          "internalType": "bytes",
          "name": "_payload",
          "type": "bytes"
        },
        {
          "indexed": false,
          "internalType": "bytes",
          "name": "_reason",
          "type": "bytes"
        }
      ],
      "name": "MessageFailed",
      "type": "event"
    },
    {
      "anonymous": false,
      "inputs": [
        {
          "indexed": true,
          "internalType": "address",
          "name": "previousOwner",
          "type": "address"
        },
        {
          "indexed": true,
          "internalType": "address",
          "name": "newOwner",
          "type": "address"
        }
      ],
      "name": "OwnershipTransferred",
      "type": "event"
    },
    {
      "anonymous": false,
      "inputs": [
        {
          "indexed": true,
          "internalType": "uint16",
          "name": "_srcChainId",
          "type": "uint16"
        },
        {
          "indexed": true,
          "internalType": "address",
          "name": "_to",
          "type": "address"
        },
        {
          "indexed": false,
          "internalType": "uint256",
          "name": "_amount",
          "type": "uint256"
        }
      ],
      "name": "ReceiveFromChain",
      "type": "event"
    },
    {
      "anonymous": false,
      "inputs": [
        {
          "indexed": false,
          "internalType": "uint16",
          "name": "_srcChainId",
          "type": "uint16"
        },
        {
          "indexed": false,
          "internalType": "bytes",
          "name": "_srcAddress",
          "type": "bytes"
        },
        {
          "indexed": false,
          "internalType": "uint64",
          "name": "_nonce",
          "type": "uint64"
        },
        {
          "indexed": false,
          "internalType": "bytes32",
          "name": "_payloadHash",
          "type": "bytes32"
        }
      ],
      "name": "RetryMessageSuccess",
      "type": "event"
    },
    {
      "anonymous": false,
      "inputs": [
        {
          "indexed": true,
          "internalType": "uint16",
          "name": "_dstChainId",
          "type": "uint16"
        },
        {
          "indexed": true,
          "internalType": "address",
          "name": "_from",
          "type": "address"
        },
        {
          "indexed": false,
          "internalType": "bytes",
          "name": "_toAddress",
          "type": "bytes"
        },
        {
          "indexed": false,
          "internalType": "uint256",
          "name": "_amount",
          "type": "uint256"
        }
      ],
      "name": "SendToChain",
      "type": "event"
    },
    {
      "anonymous": false,
      "inputs": [
        {
          "indexed": false,
          "internalType": "uint16",
          "name": "_dstChainId",
          "type": "uint16"
        },
        {
          "indexed": false,
          "internalType": "uint16",
          "name": "_type",
          "type": "uint16"
        },
        {
          "indexed": false,
          "internalType": "uint256",
          "name": "_minDstGas",
          "type": "uint256"
        }
      ],
      "name": "SetMinDstGas",
      "type": "event"
    },
    {
      "anonymous": false,
      "inputs": [
        {
          "indexed": false,
          "internalType": "address",
          "name": "precrime",
          "type": "address"
        }
      ],
      "name": "SetPrecrime",
      "type": "event"
    },
    {
      "anonymous": false,
      "inputs": [
        {
          "indexed": false,
          "internalType": "uint16",
          "name": "_remoteChainId",
          "type": "uint16"
        },
        {
          "indexed": false,
          "internalType": "bytes",
          "name": "_path",
          "type": "bytes"
        }
      ],
      "name": "SetTrustedRemote",
      "type": "event"
    },
    {
      "anonymous": false,
      "inputs": [
        {
          "indexed": false,
          "internalType": "uint16",
          "name": "_remoteChainId",
          "type": "uint16"
        },
        {
          "indexed": false,
          "internalType": "bytes",
          "name": "_remoteAddress",
          "type": "bytes"
        }
      ],
      "name": "SetTrustedRemoteAddress",
      "type": "event"
    },
    {
      "anonymous": false,
      "inputs": [
        {
          "indexed": false,
          "internalType": "bool",
          "name": "_useCustomAdapterParams",
          "type": "bool"
        }
      ],
      "name": "SetUseCustomAdapterParams",
      "type": "event"
    },
    {
      "anonymous": false,
      "inputs": [
        {
          "indexed": true,
          "internalType": "address",
          "name": "from",
          "type": "address"
        },
        {
          "indexed": true,
          "internalType": "address",
          "name": "to",
          "type": "address"
        },
        {
          "indexed": false,
          "internalType": "uint256",
          "name": "value",
          "type": "uint256"
        }
      ],
      "name": "Transfer",
      "type": "event"
    },
    {
      "anonymous": false,
      "inputs": [
        {
          "indexed": true,
          "internalType": "address",
          "name": "_src",
          "type": "address"
        },
        {
          "indexed": false,
          "internalType": "uint256",
          "name": "_amount",
          "type": "uint256"
        }
      ],
      "name": "Withdrawal",
      "type": "event"
    },
    {
      "inputs": [],
      "name": "NO_EXTRA_GAS",
      "outputs": [
        {
          "internalType": "uint256",
          "name": "",
          "type": "uint256"
        }
      ],
      "stateMutability": "view",
      "type": "function"
    },
    {
      "inputs": [],
      "name": "PT_SEND",
      "outputs": [
        {
          "internalType": "uint16",
          "name": "",
          "type": "uint16"
        }
      ],
      "stateMutability": "view",
      "type": "function"
    },
    {
      "inputs": [
        {
          "internalType": "address",
          "name": "owner",
          "type": "address"
        },
        {
          "internalType": "address",
          "name": "spender",
          "type": "address"
        }
      ],
      "name": "allowance",
      "outputs": [
        {
          "internalType": "uint256",
          "name": "",
          "type": "uint256"
        }
      ],
      "stateMutability": "view",
      "type": "function"
    },
    {
      "inputs": [
        {
          "internalType": "address",
          "name": "spender",
          "type": "address"
        },
        {
          "internalType": "uint256",
          "name": "amount",
          "type": "uint256"
        }
      ],
      "name": "approve",
      "outputs": [
        {
          "internalType": "bool",
          "name": "",
          "type": "bool"
        }
      ],
      "stateMutability": "nonpayable",
      "type": "function"
    },
    {
      "inputs": [
        {
          "internalType": "address",
          "name": "account",
          "type": "address"
        }
      ],
      "name": "balanceOf",
      "outputs": [
        {
          "internalType": "uint256",
          "name": "",
          "type": "uint256"
        }
      ],
      "stateMutability": "view",
      "type": "function"
    },
    {
      "inputs": [],
      "name": "circulatingSupply",
      "outputs": [
        {
          "internalType": "uint256",
          "name": "",
          "type": "uint256"
        }
      ],
      "stateMutability": "view",
      "type": "function"
    },
    {
      "inputs": [],
      "name": "decimals",
      "outputs": [
        {
          "internalType": "uint8",
          "name": "",
          "type": "uint8"
        }
      ],
      "stateMutability": "view",
      "type": "function"
    },
    {
      "inputs": [
        {
          "internalType": "address",
          "name": "spender",
          "type": "address"
        },
        {
          "internalType": "uint256",
          "name": "subtractedValue",
          "type": "uint256"
        }
      ],
      "name": "decreaseAllowance",
      "outputs": [
        {
          "internalType": "bool",
          "name": "",
          "type": "bool"
        }
      ],
      "stateMutability": "nonpayable",
      "type": "function"
    },
    {
      "inputs": [],
      "name": "deposit",
      "outputs": [],
      "stateMutability": "payable",
      "type": "function"
    },
    {
      "inputs": [
        {
          "internalType": "uint16",
          "name": "_dstChainId",
          "type": "uint16"
        },
        {
          "internalType": "bytes",
          "name": "_toAddress",
          "type": "bytes"
        },
        {
          "internalType": "uint256",
          "name": "_amount",
          "type": "uint256"
        },
        {
          "internalType": "bool",
          "name": "_useZro",
          "type": "bool"
        },
        {
          "internalType": "bytes",
          "name": "_adapterParams",
          "type": "bytes"
        }
      ],
      "name": "estimateSendFee",
      "outputs": [
        {
          "internalType": "uint256",
          "name": "nativeFee",
          "type": "uint256"
        },
        {
          "internalType": "uint256",
          "name": "zroFee",
          "type": "uint256"
        }
      ],
      "stateMutability": "view",
      "type": "function"
    },
    {
      "inputs": [
        {
          "internalType": "uint16",
          "name": "",
          "type": "uint16"
        },
        {
          "internalType": "bytes",
          "name": "",
          "type": "bytes"
        },
        {
          "internalType": "uint64",
          "name": "",
          "type": "uint64"
        }
      ],
      "name": "failedMessages",
      "outputs": [
        {
          "internalType": "bytes32",
          "name": "",
          "type": "bytes32"
        }
      ],
      "stateMutability": "view",
      "type": "function"
    },
    {
      "inputs": [
        {
          "internalType": "uint16",
          "name": "_srcChainId",
          "type": "uint16"
        },
        {
          "internalType": "bytes",
          "name": "_srcAddress",
          "type": "bytes"
        }
      ],
      "name": "forceResumeReceive",
      "outputs": [],
      "stateMutability": "nonpayable",
      "type": "function"
    },
    {
      "inputs": [
        {
          "internalType": "uint16",
          "name": "_version",
          "type": "uint16"
        },
        {
          "internalType": "uint16",
          "name": "_chainId",
          "type": "uint16"
        },
        {
          "internalType": "address",
          "name": "",
          "type": "address"
        },
        {
          "internalType": "uint256",
          "name": "_configType",
          "type": "uint256"
        }
      ],
      "name": "getConfig",
      "outputs": [
        {
          "internalType": "bytes",
          "name": "",
          "type": "bytes"
        }
      ],
      "stateMutability": "view",
      "type": "function"
    },
    {
      "inputs": [
        {
          "internalType": "uint16",
          "name": "_remoteChainId",
          "type": "uint16"
        }
      ],
      "name": "getTrustedRemoteAddress",
      "outputs": [
        {
          "internalType": "bytes",
          "name": "",
          "type": "bytes"
        }
      ],
      "stateMutability": "view",
      "type": "function"
    },
    {
      "inputs": [
        {
          "internalType": "address",
          "name": "spender",
          "type": "address"
        },
        {
          "internalType": "uint256",
          "name": "addedValue",
          "type": "uint256"
        }
      ],
      "name": "increaseAllowance",
      "outputs": [
        {
          "internalType": "bool",
          "name": "",
          "type": "bool"
        }
      ],
      "stateMutability": "nonpayable",
      "type": "function"
    },
    {
      "inputs": [
        {
          "internalType": "uint16",
          "name": "_srcChainId",
          "type": "uint16"
        },
        {
          "internalType": "bytes",
          "name": "_srcAddress",
          "type": "bytes"
        }
      ],
      "name": "isTrustedRemote",
      "outputs": [
        {
          "internalType": "bool",
          "name": "",
          "type": "bool"
        }
      ],
      "stateMutability": "view",
      "type": "function"
    },
    {
      "inputs": [],
      "name": "lzEndpoint",
      "outputs": [
        {
          "internalType": "contract ILayerZeroEndpoint",
          "name": "",
          "type": "address"
        }
      ],
      "stateMutability": "view",
      "type": "function"
    },
    {
      "inputs": [
        {
          "internalType": "uint16",
          "name": "_srcChainId",
          "type": "uint16"
        },
        {
          "internalType": "bytes",
          "name": "_srcAddress",
          "type": "bytes"
        },
        {
          "internalType": "uint64",
          "name": "_nonce",
          "type": "uint64"
        },
        {
          "internalType": "bytes",
          "name": "_payload",
          "type": "bytes"
        }
      ],
      "name": "lzReceive",
      "outputs": [],
      "stateMutability": "nonpayable",
      "type": "function"
    },
    {
      "inputs": [
        {
          "internalType": "uint16",
          "name": "",
          "type": "uint16"
        },
        {
          "internalType": "uint16",
          "name": "",
          "type": "uint16"
        }
      ],
      "name": "minDstGasLookup",
      "outputs": [
        {
          "internalType": "uint256",
          "name": "",
          "type": "uint256"
        }
      ],
      "stateMutability": "view",
      "type": "function"
    },
    {
      "inputs": [],
      "name": "minSendAmount",
      "outputs": [
        {
          "internalType": "uint256",
          "name": "",
          "type": "uint256"
        }
      ],
      "stateMutability": "view",
      "type": "function"
    },
    {
      "inputs": [],
      "name": "name",
      "outputs": [
        {
          "internalType": "string",
          "name": "",
          "type": "string"
        }
      ],
      "stateMutability": "view",
      "type": "function"
    },
    {
      "inputs": [
        {
          "internalType": "uint16",
          "name": "_srcChainId",
          "type": "uint16"
        },
        {
          "internalType": "bytes",
          "name": "_srcAddress",
          "type": "bytes"
        },
        {
          "internalType": "uint64",
          "name": "_nonce",
          "type": "uint64"
        },
        {
          "internalType": "bytes",
          "name": "_payload",
          "type": "bytes"
        }
      ],
      "name": "nonblockingLzReceive",
      "outputs": [],
      "stateMutability": "nonpayable",
      "type": "function"
    },
    {
      "inputs": [],
      "name": "owner",
      "outputs": [
        {
          "internalType": "address",
          "name": "",
          "type": "address"
        }
      ],
      "stateMutability": "view",
      "type": "function"
    },
    {
      "inputs": [],
      "name": "precrime",
      "outputs": [
        {
          "internalType": "address",
          "name": "",
          "type": "address"
        }
      ],
      "stateMutability": "view",
      "type": "function"
    },
    {
      "inputs": [],
      "name": "renounceOwnership",
      "outputs": [],
      "stateMutability": "nonpayable",
      "type": "function"
    },
    {
      "inputs": [
        {
          "internalType": "uint16",
          "name": "_srcChainId",
          "type": "uint16"
        },
        {
          "internalType": "bytes",
          "name": "_srcAddress",
          "type": "bytes"
        },
        {
          "internalType": "uint64",
          "name": "_nonce",
          "type": "uint64"
        },
        {
          "internalType": "bytes",
          "name": "_payload",
          "type": "bytes"
        }
      ],
      "name": "retryMessage",
      "outputs": [],
      "stateMutability": "payable",
      "type": "function"
    },
    {
      "inputs": [
        {
          "internalType": "address",
          "name": "_from",
          "type": "address"
        },
        {
          "internalType": "uint16",
          "name": "_dstChainId",
          "type": "uint16"
        },
        {
          "internalType": "bytes",
          "name": "_toAddress",
          "type": "bytes"
        },
        {
          "internalType": "uint256",
          "name": "_amount",
          "type": "uint256"
        },
        {
          "internalType": "address payable",
          "name": "_refundAddress",
          "type": "address"
        },
        {
          "internalType": "address",
          "name": "_zroPaymentAddress",
          "type": "address"
        },
        {
          "internalType": "bytes",
          "name": "_adapterParams",
          "type": "bytes"
        }
      ],
      "name": "sendFrom",
      "outputs": [],
      "stateMutability": "payable",
      "type": "function"
    },
    {
      "inputs": [
        {
          "internalType": "uint16",
          "name": "_version",
          "type": "uint16"
        },
        {
          "internalType": "uint16",
          "name": "_chainId",
          "type": "uint16"
        },
        {
          "internalType": "uint256",
          "name": "_configType",
          "type": "uint256"
        },
        {
          "internalType": "bytes",
          "name": "_config",
          "type": "bytes"
        }
      ],
      "name": "setConfig",
      "outputs": [],
      "stateMutability": "nonpayable",
      "type": "function"
    },
    {
      "inputs": [
        {
          "internalType": "uint16",
          "name": "_dstChainId",
          "type": "uint16"
        },
        {
          "internalType": "uint16",
          "name": "_packetType",
          "type": "uint16"
        },
        {
          "internalType": "uint256",
          "name": "_minGas",
          "type": "uint256"
        }
      ],
      "name": "setMinDstGas",
      "outputs": [],
      "stateMutability": "nonpayable",
      "type": "function"
    },
    {
      "inputs": [
        {
          "internalType": "uint256",
          "name": "_minSendAmount",
          "type": "uint256"
        }
      ],
      "name": "setMinSendAmount",
      "outputs": [],
      "stateMutability": "nonpayable",
      "type": "function"
    },
    {
      "inputs": [
        {
          "internalType": "address",
          "name": "_precrime",
          "type": "address"
        }
      ],
      "name": "setPrecrime",
      "outputs": [],
      "stateMutability": "nonpayable",
      "type": "function"
    },
    {
      "inputs": [
        {
          "internalType": "uint16",
          "name": "_version",
          "type": "uint16"
        }
      ],
      "name": "setReceiveVersion",
      "outputs": [],
      "stateMutability": "nonpayable",
      "type": "function"
    },
    {
      "inputs": [
        {
          "internalType": "uint16",
          "name": "_version",
          "type": "uint16"
        }
      ],
      "name": "setSendVersion",
      "outputs": [],
      "stateMutability": "nonpayable",
      "type": "function"
    },
    {
      "inputs": [
        {
          "internalType": "uint16",
          "name": "_srcChainId",
          "type": "uint16"
        },
        {
          "internalType": "bytes",
          "name": "_path",
          "type": "bytes"
        }
      ],
      "name": "setTrustedRemote",
      "outputs": [],
      "stateMutability": "nonpayable",
      "type": "function"
    },
    {
      "inputs": [
        {
          "internalType": "uint16",
          "name": "_remoteChainId",
          "type": "uint16"
        },
        {
          "internalType": "bytes",
          "name": "_remoteAddress",
          "type": "bytes"
        }
      ],
      "name": "setTrustedRemoteAddress",
      "outputs": [],
      "stateMutability": "nonpayable",
      "type": "function"
    },
    {
      "inputs": [
        {
          "internalType": "bool",
          "name": "_useCustomAdapterParams",
          "type": "bool"
        }
      ],
      "name": "setUseCustomAdapterParams",
      "outputs": [],
      "stateMutability": "nonpayable",
      "type": "function"
    },
    {
      "inputs": [
        {
          "internalType": "bytes4",
          "name": "interfaceId",
          "type": "bytes4"
        }
      ],
      "name": "supportsInterface",
      "outputs": [
        {
          "internalType": "bool",
          "name": "",
          "type": "bool"
        }
      ],
      "stateMutability": "view",
      "type": "function"
    },
    {
      "inputs": [],
      "name": "symbol",
      "outputs": [
        {
          "internalType": "string",
          "name": "",
          "type": "string"
        }
      ],
      "stateMutability": "view",
      "type": "function"
    },
    {
      "inputs": [],
      "name": "token",
      "outputs": [
        {
          "internalType": "address",
          "name": "",
          "type": "address"
        }
      ],
      "stateMutability": "view",
      "type": "function"
    },
    {
      "inputs": [],
      "name": "totalSupply",
      "outputs": [
        {
          "internalType": "uint256",
          "name": "",
          "type": "uint256"
        }
      ],
      "stateMutability": "view",
      "type": "function"
    },
    {
      "inputs": [
        {
          "internalType": "address",
          "name": "to",
          "type": "address"
        },
        {
          "internalType": "uint256",
          "name": "amount",
          "type": "uint256"
        }
      ],
      "name": "transfer",
      "outputs": [
        {
          "internalType": "bool",
          "name": "",
          "type": "bool"
        }
      ],
      "stateMutability": "nonpayable",
      "type": "function"
    },
    {
      "inputs": [
        {
          "internalType": "address",
          "name": "from",
          "type": "address"
        },
        {
          "internalType": "address",
          "name": "to",
          "type": "address"
        },
        {
          "internalType": "uint256",
          "name": "amount",
          "type": "uint256"
        }
      ],
      "name": "transferFrom",
      "outputs": [
        {
          "internalType": "bool",
          "name": "",
          "type": "bool"
        }
      ],
      "stateMutability": "nonpayable",
      "type": "function"
    },
    {
      "inputs": [
        {
          "internalType": "address",
          "name": "newOwner",
          "type": "address"
        }
      ],
      "name": "transferOwnership",
      "outputs": [],
      "stateMutability": "nonpayable",
      "type": "function"
    },
    {
      "inputs": [
        {
          "internalType": "uint16",
          "name": "",
          "type": "uint16"
        }
      ],
      "name": "trustedRemoteLookup",
      "outputs": [
        {
          "internalType": "bytes",
          "name": "",
          "type": "bytes"
        }
      ],
      "stateMutability": "view",
      "type": "function"
    },
    {
      "inputs": [],
      "name": "useCustomAdapterParams",
      "outputs": [
        {
          "internalType": "bool",
          "name": "",
          "type": "bool"
        }
      ],
      "stateMutability": "view",
      "type": "function"
    },
    {
      "inputs": [
        {
          "internalType": "uint256",
          "name": "_amount",
          "type": "uint256"
        }
      ],
      "name": "withdraw",
      "outputs": [],
      "stateMutability": "nonpayable",
      "type": "function"
    },
    {
      "stateMutability": "payable",
      "type": "receive"
    }
  ],
  "transactionHash": "0x26dc7615e50be2e2755c6830fd1273af247b9ee9af2942490d0389dbc1f39309",
  "args": [
    "Native Goerli ETH",
    "GETH",
    "0x9740FF91F1985D8d2B71494aE1A2f723bb3Ed9E4",
    "1000000000000000000"
  ],
  "numDeployments": 1,
  "solcInputHash": "83e6ce1aa5f35b1c8344f020072876b9",
  "bytecode": "0x60a06040523480156200001157600080fd5b5060405162003c1e38038062003c1e8339810160408190526200003491620001a9565b83838382828282828280806200004a3362000094565b6001600160a01b03166080525060099050620000678382620002cb565b50600a620000768282620002cb565b50506001600b55505050600c94909455506200039795505050505050565b600080546001600160a01b038381166001600160a01b0319831681178455604051919092169283917f8be0079c531659141344cd1fd0a4f28419497f9722a3daafe3b4186f6b6457e09190a35050565b634e487b7160e01b600052604160045260246000fd5b600082601f8301126200010c57600080fd5b81516001600160401b0380821115620001295762000129620000e4565b604051601f8301601f19908116603f01168101908282118183101715620001545762000154620000e4565b816040528381526020925086838588010111156200017157600080fd5b600091505b8382101562000195578582018301518183018401529082019062000176565b600093810190920192909252949350505050565b60008060008060808587031215620001c057600080fd5b84516001600160401b0380821115620001d857600080fd5b620001e688838901620000fa565b95506020870151915080821115620001fd57600080fd5b506200020c87828801620000fa565b604087015190945090506001600160a01b03811681146200022c57600080fd5b6060959095015193969295505050565b600181811c908216806200025157607f821691505b6020821081036200027257634e487b7160e01b600052602260045260246000fd5b50919050565b601f821115620002c657600081815260208120601f850160051c81016020861015620002a15750805b601f850160051c820191505b81811015620002c257828155600101620002ad565b5050505b505050565b81516001600160401b03811115620002e757620002e7620000e4565b620002ff81620002f884546200023c565b8462000278565b602080601f8311600181146200033757600084156200031e5750858301515b600019600386901b1c1916600185901b178555620002c2565b600085815260208120601f198616915b82811015620003685788860151825594840194600190910190840162000347565b5085821015620003875787850151600019600388901b60f8161c191681555b5050505050600190811b01905550565b608051613833620003eb60003960008181610701015281816108cf01528181610bee01528181610c8f01528181610d2d015281816110160152818161154f015281816119f7015261280001526138336000f3fe6080604052600436106102805760003560e01c80638da5cb5b1161014f578063cbed8b9c116100c1578063eb8d72b71161007a578063eb8d72b7146107de578063ed629c5c146107fe578063f2fde38b14610818578063f5ecbdbc14610838578063fc0c546a14610858578063fe19f1231461086b57600080fd5b8063cbed8b9c14610743578063d0e30db014610763578063d1deba1f1461076b578063dd62ed3e1461077e578063df2a5b3b1461079e578063eab45d9c146107be57600080fd5b8063a457c2d711610113578063a457c2d714610679578063a6c3d16514610699578063a83e223c146106b9578063a9059cbb146106cf578063b353aaa7146106ef578063baf3292d1461072357600080fd5b80638da5cb5b146105dd5780639358928b1461060f578063950c8a741461062457806395d89b41146106445780639f38369a1461065957600080fd5b806339509351116101f35780635b8c41e6116101ac5780635b8c41e6146104cb57806366ad5c8a1461051a57806370a082311461053a578063715018a6146105705780637533d788146105855780638cfd8f5c146105a557600080fd5b8063395093511461041b5780633d8b38f61461043b57806342d65a8d1461045b578063447705151461047b5780634c42899a1461049057806351905636146104b857600080fd5b806310ddb1371161024557806310ddb1371461034b57806318160ddd1461036b57806323b872dd1461038a5780632a205e3d146103aa5780632e1a7d4d146103df578063313ce567146103ff57600080fd5b80621d35671461029457806301ffc9a7146102b457806306fdde03146102e957806307e0db171461030b578063095ea7b31461032b57600080fd5b3661028f5761028d61088b565b005b600080fd5b3480156102a057600080fd5b5061028d6102af366004612b8e565b6108cc565b3480156102c057600080fd5b506102d46102cf366004612c23565b610afd565b60405190151581526020015b60405180910390f35b3480156102f557600080fd5b506102fe610b3b565b6040516102e09190612c9d565b34801561031757600080fd5b5061028d610326366004612cb0565b610bcd565b34801561033757600080fd5b506102d4610346366004612ce2565b610c56565b34801561035757600080fd5b5061028d610366366004612cb0565b610c6e565b34801561037757600080fd5b506008545b6040519081526020016102e0565b34801561039657600080fd5b506102d46103a5366004612d0e565b610cc6565b3480156103b657600080fd5b506103ca6103c5366004612d5f565b610cea565b604080519283526020830191909152016102e0565b3480156103eb57600080fd5b5061028d6103fa366004612dfe565b610dbd565b34801561040b57600080fd5b50604051601281526020016102e0565b34801561042757600080fd5b506102d4610436366004612ce2565b610f09565b34801561044757600080fd5b506102d4610456366004612e17565b610f2b565b34801561046757600080fd5b5061028d610476366004612e17565b610ff7565b34801561048757600080fd5b5061037c600081565b34801561049c57600080fd5b506104a5600081565b60405161ffff90911681526020016102e0565b61028d6104c6366004612e6b565b61107d565b3480156104d757600080fd5b5061037c6104e6366004612fa1565b6004602090815260009384526040808520845180860184018051928152908401958401959095209452929052825290205481565b34801561052657600080fd5b5061028d610535366004612b8e565b611102565b34801561054657600080fd5b5061037c610555366004613043565b6001600160a01b031660009081526006602052604090205490565b34801561057c57600080fd5b5061028d6111de565b34801561059157600080fd5b506102fe6105a0366004612cb0565b6111f2565b3480156105b157600080fd5b5061037c6105c0366004613060565b600260209081526000928352604080842090915290825290205481565b3480156105e957600080fd5b506000546001600160a01b03165b6040516001600160a01b0390911681526020016102e0565b34801561061b57600080fd5b5061037c61128c565b34801561063057600080fd5b506003546105f7906001600160a01b031681565b34801561065057600080fd5b506102fe61129c565b34801561066557600080fd5b506102fe610674366004612cb0565b6112ab565b34801561068557600080fd5b506102d4610694366004612ce2565b6113c1565b3480156106a557600080fd5b5061028d6106b4366004612e17565b61143c565b3480156106c557600080fd5b5061037c600c5481565b3480156106db57600080fd5b506102d46106ea366004612ce2565b6114c5565b3480156106fb57600080fd5b506105f77f000000000000000000000000000000000000000000000000000000000000000081565b34801561072f57600080fd5b5061028d61073e366004613043565b6114d3565b34801561074f57600080fd5b5061028d61075e366004613099565b611530565b61028d61088b565b61028d610779366004612b8e565b6115ba565b34801561078a57600080fd5b5061037c61079936600461310b565b6117d0565b3480156107aa57600080fd5b5061028d6107b9366004613139565b6117fb565b3480156107ca57600080fd5b5061028d6107d9366004613169565b6118ad565b3480156107ea57600080fd5b5061028d6107f9366004612e17565b6118f6565b34801561080a57600080fd5b506005546102d49060ff1681565b34801561082457600080fd5b5061028d610833366004613043565b611950565b34801561084457600080fd5b506102fe610853366004613184565b6119c6565b34801561086457600080fd5b50306105f7565b34801561087757600080fd5b5061028d610886366004612dfe565b611a77565b6108953334611a84565b60405134815233907fe1fffcc4923d04b559f4d29a8bfc6cda04eb5b0d3c460751c2402c5c5cc9109c9060200160405180910390a2565b337f00000000000000000000000000000000000000000000000000000000000000006001600160a01b0316146109495760405162461bcd60e51b815260206004820152601e60248201527f4c7a4170703a20696e76616c696420656e64706f696e742063616c6c6572000060448201526064015b60405180910390fd5b61ffff861660009081526001602052604081208054610967906131d5565b80601f0160208091040260200160405190810160405280929190818152602001828054610993906131d5565b80156109e05780601f106109b5576101008083540402835291602001916109e0565b820191906000526020600020905b8154815290600101906020018083116109c357829003601f168201915b505050505090508051868690501480156109fb575060008151115b8015610a23575080516020820120604051610a199088908890613209565b6040518091039020145b610a7e5760405162461bcd60e51b815260206004820152602660248201527f4c7a4170703a20696e76616c696420736f757263652073656e64696e6720636f6044820152651b9d1c9858dd60d21b6064820152608401610940565b610af48787878080601f01602080910402602001604051908101604052809392919081815260200183838082843760009201919091525050604080516020601f8a018190048102820181019092528881528a935091508890889081908401838280828437600092019190915250611b4592505050565b50505050505050565b60006001600160e01b031982161580610b2657506001600160e01b031982166336372b0760e01b145b80610b355750610b3582611bbe565b92915050565b606060098054610b4a906131d5565b80601f0160208091040260200160405190810160405280929190818152602001828054610b76906131d5565b8015610bc35780601f10610b9857610100808354040283529160200191610bc3565b820191906000526020600020905b815481529060010190602001808311610ba657829003601f168201915b5050505050905090565b610bd5611bf3565b6040516307e0db1760e01b815261ffff821660048201527f00000000000000000000000000000000000000000000000000000000000000006001600160a01b0316906307e0db17906024015b600060405180830381600087803b158015610c3b57600080fd5b505af1158015610c4f573d6000803e3d6000fd5b5050505050565b600033610c64818585611c4d565b5060019392505050565b610c76611bf3565b6040516310ddb13760e01b815261ffff821660048201527f00000000000000000000000000000000000000000000000000000000000000006001600160a01b0316906310ddb13790602401610c21565b600033610cd4858285611d72565b610cdf858585611dec565b506001949350505050565b600080600080898989604051602001610d069493929190613242565b60408051601f198184030181529082905263040a7bb160e41b825291506001600160a01b037f000000000000000000000000000000000000000000000000000000000000000016906340a7bb1090610d6c908d90309086908c908c908c90600401613271565b6040805180830381865afa158015610d88573d6000803e3d6000fd5b505050506040513d601f19601f82011682018060405250810190610dac91906132c7565b925092505097509795505050505050565b610dc5611f97565b33600090815260066020526040902054811115610e245760405162461bcd60e51b815260206004820181905260248201527f4e61746976654f46543a20496e73756666696369656e742062616c616e63652e6044820152606401610940565b610e2e3382611ff0565b604051600090339083908381818185875af1925050503d8060008114610e70576040519150601f19603f3d011682016040523d82523d6000602084013e610e75565b606091505b5050905080610ec65760405162461bcd60e51b815260206004820152601b60248201527f4e61746976654f46543a206661696c656420746f20756e7772617000000000006044820152606401610940565b60405182815233907f7fcf532c15f0a6db0bd6d0e038bea71d30d808c7d98cb3bf7268a95bf5081b659060200160405180910390a250610f066001600b55565b50565b600033610c64818585610f1c83836117d0565b610f269190613301565b611c4d565b61ffff831660009081526001602052604081208054829190610f4c906131d5565b80601f0160208091040260200160405190810160405280929190818152602001828054610f78906131d5565b8015610fc55780601f10610f9a57610100808354040283529160200191610fc5565b820191906000526020600020905b815481529060010190602001808311610fa857829003601f168201915b505050505090508383604051610fdc929190613209565b60405180910390208180519060200120149150509392505050565b610fff611bf3565b6040516342d65a8d60e01b81526001600160a01b037f000000000000000000000000000000000000000000000000000000000000000016906342d65a8d9061104f90869086908690600401613314565b600060405180830381600087803b15801561106957600080fd5b505af1158015610af4573d6000803e3d6000fd5b6110f7898989898080601f01602080910402602001604051908101604052809392919081815260200183838082843760009201919091525050604080516020601f8a018190048102820181019092528881528c93508b92508a918a908a908190840183828082843760009201919091525061212192505050565b505050505050505050565b3330146111605760405162461bcd60e51b815260206004820152602660248201527f4e6f6e626c6f636b696e674c7a4170703a2063616c6c6572206d7573742062656044820152650204c7a4170760d41b6064820152608401610940565b6111d68686868080601f01602080910402602001604051908101604052809392919081815260200183838082843760009201919091525050604080516020601f89018190048102820181019092528781528993509150879087908190840183828082843760009201919091525061219e92505050565b505050505050565b6111e6611bf3565b6111f06000612205565b565b6001602052600090815260409020805461120b906131d5565b80601f0160208091040260200160405190810160405280929190818152602001828054611237906131d5565b80156112845780601f1061125957610100808354040283529160200191611284565b820191906000526020600020905b81548152906001019060200180831161126757829003601f168201915b505050505081565b600061129760085490565b905090565b6060600a8054610b4a906131d5565b61ffff81166000908152600160205260408120805460609291906112ce906131d5565b80601f01602080910402602001604051908101604052809291908181526020018280546112fa906131d5565b80156113475780601f1061131c57610100808354040283529160200191611347565b820191906000526020600020905b81548152906001019060200180831161132a57829003601f168201915b50505050509050805160000361139f5760405162461bcd60e51b815260206004820152601d60248201527f4c7a4170703a206e6f20747275737465642070617468207265636f72640000006044820152606401610940565b6113ba6000601483516113b29190613332565b839190612255565b9392505050565b600033816113cf82866117d0565b90508381101561142f5760405162461bcd60e51b815260206004820152602560248201527f45524332303a2064656372656173656420616c6c6f77616e63652062656c6f77604482015264207a65726f60d81b6064820152608401610940565b610cdf8286868403611c4d565b611444611bf3565b81813060405160200161145993929190613345565b60408051601f1981840301815291815261ffff851660009081526001602052209061148490826133b1565b507f8c0400cfe2d1199b1a725c78960bcc2a344d869b80590d0f2bd005db15a572ce8383836040516114b893929190613314565b60405180910390a1505050565b600033610c64818585611dec565b6114db611bf3565b600380546001600160a01b0319166001600160a01b0383169081179091556040519081527f5db758e995a17ec1ad84bdef7e8c3293a0bd6179bcce400dff5d4c3d87db726b906020015b60405180910390a150565b611538611bf3565b6040516332fb62e760e21b81526001600160a01b037f0000000000000000000000000000000000000000000000000000000000000000169063cbed8b9c9061158c9088908890889088908890600401613470565b600060405180830381600087803b1580156115a657600080fd5b505af11580156110f7573d6000803e3d6000fd5b61ffff861660009081526004602052604080822090516115dd9088908890613209565b90815260408051602092819003830190206001600160401b0387166000908152925290205490508061165d5760405162461bcd60e51b815260206004820152602360248201527f4e6f6e626c6f636b696e674c7a4170703a206e6f2073746f726564206d65737360448201526261676560e81b6064820152608401610940565b80838360405161166e929190613209565b6040518091039020146116cd5760405162461bcd60e51b815260206004820152602160248201527f4e6f6e626c6f636b696e674c7a4170703a20696e76616c6964207061796c6f616044820152601960fa1b6064820152608401610940565b61ffff871660009081526004602052604080822090516116f09089908990613209565b90815260408051602092819003830181206001600160401b038916600090815290845282902093909355601f88018290048202830182019052868252611788918991899089908190840183828082843760009201919091525050604080516020601f8a018190048102820181019092528881528a93509150889088908190840183828082843760009201919091525061219e92505050565b7fc264d91f3adc5588250e1551f547752ca0cfa8f6b530d243b9f9f4cab10ea8e587878787856040516117bf9594939291906134a9565b60405180910390a150505050505050565b6001600160a01b03918216600090815260076020908152604080832093909416825291909152205490565b611803611bf3565b6000811161184b5760405162461bcd60e51b81526020600482015260156024820152744c7a4170703a20696e76616c6964206d696e47617360581b6044820152606401610940565b61ffff83811660008181526002602090815260408083209487168084529482529182902085905581519283528201929092529081018290527f9d5c7c0b934da8fefa9c7760c98383778a12dfbfc0c3b3106518f43fb9508ac0906060016114b8565b6118b5611bf3565b6005805460ff19168215159081179091556040519081527f1584ad594a70cbe1e6515592e1272a987d922b097ead875069cebe8b40c004a490602001611525565b6118fe611bf3565b61ffff8316600090815260016020526040902061191c8284836134e4565b507ffa41487ad5d6728f0b19276fa1eddc16558578f5109fc39d2dc33c3230470dab8383836040516114b893929190613314565b611958611bf3565b6001600160a01b0381166119bd5760405162461bcd60e51b815260206004820152602660248201527f4f776e61626c653a206e6577206f776e657220697320746865207a65726f206160448201526564647265737360d01b6064820152608401610940565b610f0681612205565b604051633d7b2f6f60e21b815261ffff808616600483015284166024820152306044820152606481018290526060907f00000000000000000000000000000000000000000000000000000000000000006001600160a01b03169063f5ecbdbc90608401600060405180830381865afa158015611a46573d6000803e3d6000fd5b505050506040513d6000823e601f3d908101601f19168201604052611a6e91908101906135f0565b95945050505050565b611a7f611bf3565b600c55565b6001600160a01b038216611ada5760405162461bcd60e51b815260206004820152601f60248201527f45524332303a206d696e7420746f20746865207a65726f2061646472657373006044820152606401610940565b8060086000828254611aec9190613301565b90915550506001600160a01b0382166000818152600660209081526040808320805486019055518481527fddf252ad1be2c89b69c2b068fc378daa952ba7f163c4a11628f55a4df523b3ef910160405180910390a35050565b600080611ba85a60966366ad5c8a60e01b89898989604051602401611b6d9493929190613624565b60408051601f198184030181529190526020810180516001600160e01b03166001600160e01b03199093169290921790915230929190612362565b91509150816111d6576111d686868686856123ec565b60006001600160e01b03198216630a72677560e11b1480610b3557506301ffc9a760e01b6001600160e01b0319831614610b35565b6000546001600160a01b031633146111f05760405162461bcd60e51b815260206004820181905260248201527f4f776e61626c653a2063616c6c6572206973206e6f7420746865206f776e65726044820152606401610940565b6001600160a01b038316611caf5760405162461bcd60e51b8152602060048201526024808201527f45524332303a20617070726f76652066726f6d20746865207a65726f206164646044820152637265737360e01b6064820152608401610940565b6001600160a01b038216611d105760405162461bcd60e51b815260206004820152602260248201527f45524332303a20617070726f766520746f20746865207a65726f206164647265604482015261737360f01b6064820152608401610940565b6001600160a01b0383811660008181526007602090815260408083209487168084529482529182902085905590518481527f8c5be1e5ebec7d5bd14f71427d1e84f3dd0314c0f7b2291e5b200ac8c7c3b92591015b60405180910390a3505050565b6000611d7e84846117d0565b90506000198114611de65781811015611dd95760405162461bcd60e51b815260206004820152601d60248201527f45524332303a20696e73756666696369656e7420616c6c6f77616e63650000006044820152606401610940565b611de68484848403611c4d565b50505050565b6001600160a01b038316611e505760405162461bcd60e51b815260206004820152602560248201527f45524332303a207472616e736665722066726f6d20746865207a65726f206164604482015264647265737360d81b6064820152608401610940565b6001600160a01b038216611eb25760405162461bcd60e51b815260206004820152602360248201527f45524332303a207472616e7366657220746f20746865207a65726f206164647260448201526265737360e81b6064820152608401610940565b6001600160a01b03831660009081526006602052604090205481811015611f2a5760405162461bcd60e51b815260206004820152602660248201527f45524332303a207472616e7366657220616d6f756e7420657863656564732062604482015265616c616e636560d01b6064820152608401610940565b6001600160a01b0380851660008181526006602052604080822086860390559286168082529083902080548601905591517fddf252ad1be2c89b69c2b068fc378daa952ba7f163c4a11628f55a4df523b3ef90611f8a9086815260200190565b60405180910390a3611de6565b6002600b5403611fe95760405162461bcd60e51b815260206004820152601f60248201527f5265656e7472616e637947756172643a207265656e7472616e742063616c6c006044820152606401610940565b6002600b55565b6001600160a01b0382166120505760405162461bcd60e51b815260206004820152602160248201527f45524332303a206275726e2066726f6d20746865207a65726f206164647265736044820152607360f81b6064820152608401610940565b6001600160a01b038216600090815260066020526040902054818110156120c45760405162461bcd60e51b815260206004820152602260248201527f45524332303a206275726e20616d6f756e7420657863656564732062616c616e604482015261636560f01b6064820152608401610940565b6001600160a01b03831660008181526006602090815260408083208686039055600880548790039055518581529192917fddf252ad1be2c89b69c2b068fc378daa952ba7f163c4a11628f55a4df523b3ef9101611d65565b505050565b600c5484101561218f5760405162461bcd60e51b815260206004820152603360248201527f4d696e53656e64416d6f756e744e61746976654f46543a20616d6f756e74206960448201527273206c657373207468616e206d696e696d756d60681b6064820152608401610940565b610af487878787878787612489565b602081015161ffff81166121bd576121b88585858561254f565b610c4f565b60405162461bcd60e51b815260206004820152601c60248201527f4f4654436f72653a20756e6b6e6f776e207061636b65742074797065000000006044820152606401610940565b600080546001600160a01b038381166001600160a01b0319831681178455604051919092169283917f8be0079c531659141344cd1fd0a4f28419497f9722a3daafe3b4186f6b6457e09190a35050565b60608161226381601f613301565b10156122a25760405162461bcd60e51b815260206004820152600e60248201526d736c6963655f6f766572666c6f7760901b6044820152606401610940565b6122ac8284613301565b845110156122f05760405162461bcd60e51b8152602060048201526011602482015270736c6963655f6f75744f66426f756e647360781b6044820152606401610940565b60608215801561230f5760405191506000825260208201604052612359565b6040519150601f8416801560200281840101858101878315602002848b0101015b81831015612348578051835260209283019201612330565b5050858452601f01601f1916604052505b50949350505050565b6000606060008060008661ffff166001600160401b0381111561238757612387612f34565b6040519080825280601f01601f1916602001820160405280156123b1576020820181803683370190505b50905060008087516020890160008d8df191503d9250868311156123d3578692505b828152826000602083013e909890975095505050505050565b8180519060200120600460008761ffff1661ffff1681526020019081526020016000208560405161241d9190613662565b9081526040805191829003602090810183206001600160401b0388166000908152915220919091557fe183f33de2837795525b4792ca4cd60535bd77c53b7e7030060bfcf5734d6b0c9061247a908790879087908790879061367e565b60405180910390a15050505050565b6000612497888888886125d9565b905060008087876040516020016124b0939291906136dc565b60408051601f1981840301815291905260055490915060ff16156124e1576124dc886000856000612603565b612541565b8251156125415760405162461bcd60e51b815260206004820152602860248201527f4e61746976654f46543a205f61646170746572506172616d73206d7573742062604482015267329032b6b83a3c9760c11b6064820152608401610940565b6110f78882878787876126e2565b600080828060200190518101906125669190613709565b909350915060009050612579838261287c565b90506125868782846128e1565b9150806001600160a01b03168761ffff167fbf551ec93859b170f9b2141bd9298bf3f64322c6f7beb2543a0cb669834118bf846040516125c891815260200190565b60405180910390a350505050505050565b6000336001600160a01b038616146125fa576125f58583612999565b611a6e565b611a6e82612a3e565b600061260e83612abe565b61ffff808716600090815260026020908152604080832093891683529290529081205491925090612640908490613301565b9050600081116126925760405162461bcd60e51b815260206004820152601a60248201527f4c7a4170703a206d696e4761734c696d6974206e6f74207365740000000000006044820152606401610940565b808210156111d65760405162461bcd60e51b815260206004820152601b60248201527f4c7a4170703a20676173206c696d697420697320746f6f206c6f7700000000006044820152606401610940565b61ffff861660009081526001602052604081208054612700906131d5565b80601f016020809104026020016040519081016040528092919081815260200182805461272c906131d5565b80156127795780601f1061274e57610100808354040283529160200191612779565b820191906000526020600020905b81548152906001019060200180831161275c57829003601f168201915b5050505050905080516000036127ea5760405162461bcd60e51b815260206004820152603060248201527f4c7a4170703a2064657374696e6174696f6e20636861696e206973206e6f742060448201526f61207472757374656420736f7572636560801b6064820152608401610940565b60405162c5803160e81b81526001600160a01b037f0000000000000000000000000000000000000000000000000000000000000000169063c5803100908490612841908b9086908c908c908c908c90600401613762565b6000604051808303818588803b15801561285a57600080fd5b505af115801561286e573d6000803e3d6000fd5b505050505050505050505050565b6000612889826014613301565b835110156128d15760405162461bcd60e51b8152602060048201526015602482015274746f416464726573735f6f75744f66426f756e647360581b6044820152606401610940565b500160200151600160601b900490565b60006128ed3083611ff0565b6000836001600160a01b03168360405160006040518083038185875af1925050503d806000811461293a576040519150601f19603f3d011682016040523d82523d6000602084013e61293f565b606091505b50509050806129905760405162461bcd60e51b815260206004820152601e60248201527f4e61746976654f46543a206661696c656420746f205f637265646974546f00006044820152606401610940565b50909392505050565b6001600160a01b03821660009081526006602052604081205482811015612a1d57826129c53483613301565b10156129e35760405162461bcd60e51b8152600401610940906137bc565b60006129ef8285613332565b90506129fb3382611a84565b612a06333083611dec565b8193508034612a159190613332565b925050612a21565b3491505b612a2c843385611d72565b612a37843085611dec565b5092915050565b3360009081526006602052604081205482811015612aa95782612a613483613301565b1015612a7f5760405162461bcd60e51b8152600401610940906137bc565b6000612a8b8285613332565b9050612a973382611a84565b612aa18134613332565b925050612aad565b3491505b612ab8333085611dec565b50919050565b6000602282511015612b125760405162461bcd60e51b815260206004820152601c60248201527f4c7a4170703a20696e76616c69642061646170746572506172616d73000000006044820152606401610940565b506022015190565b61ffff81168114610f0657600080fd5b60008083601f840112612b3c57600080fd5b5081356001600160401b03811115612b5357600080fd5b602083019150836020828501011115612b6b57600080fd5b9250929050565b80356001600160401b0381168114612b8957600080fd5b919050565b60008060008060008060808789031215612ba757600080fd5b8635612bb281612b1a565b955060208701356001600160401b0380821115612bce57600080fd5b612bda8a838b01612b2a565b9097509550859150612bee60408a01612b72565b94506060890135915080821115612c0457600080fd5b50612c1189828a01612b2a565b979a9699509497509295939492505050565b600060208284031215612c3557600080fd5b81356001600160e01b0319811681146113ba57600080fd5b60005b83811015612c68578181015183820152602001612c50565b50506000910152565b60008151808452612c89816020860160208601612c4d565b601f01601f19169290920160200192915050565b6020815260006113ba6020830184612c71565b600060208284031215612cc257600080fd5b81356113ba81612b1a565b6001600160a01b0381168114610f0657600080fd5b60008060408385031215612cf557600080fd5b8235612d0081612ccd565b946020939093013593505050565b600080600060608486031215612d2357600080fd5b8335612d2e81612ccd565b92506020840135612d3e81612ccd565b929592945050506040919091013590565b80358015158114612b8957600080fd5b600080600080600080600060a0888a031215612d7a57600080fd5b8735612d8581612b1a565b965060208801356001600160401b0380821115612da157600080fd5b612dad8b838c01612b2a565b909850965060408a01359550869150612dc860608b01612d4f565b945060808a0135915080821115612dde57600080fd5b50612deb8a828b01612b2a565b989b979a50959850939692959293505050565b600060208284031215612e1057600080fd5b5035919050565b600080600060408486031215612e2c57600080fd5b8335612e3781612b1a565b925060208401356001600160401b03811115612e5257600080fd5b612e5e86828701612b2a565b9497909650939450505050565b600080600080600080600080600060e08a8c031215612e8957600080fd5b8935612e9481612ccd565b985060208a0135612ea481612b1a565b975060408a01356001600160401b0380821115612ec057600080fd5b612ecc8d838e01612b2a565b909950975060608c0135965060808c01359150612ee882612ccd565b90945060a08b013590612efa82612ccd565b90935060c08b01359080821115612f1057600080fd5b50612f1d8c828d01612b2a565b915080935050809150509295985092959850929598565b634e487b7160e01b600052604160045260246000fd5b604051601f8201601f191681016001600160401b0381118282101715612f7257612f72612f34565b604052919050565b60006001600160401b03821115612f9357612f93612f34565b50601f01601f191660200190565b600080600060608486031215612fb657600080fd5b8335612fc181612b1a565b925060208401356001600160401b03811115612fdc57600080fd5b8401601f81018613612fed57600080fd5b8035613000612ffb82612f7a565b612f4a565b81815287602083850101111561301557600080fd5b8160208401602083013760006020838301015280945050505061303a60408501612b72565b90509250925092565b60006020828403121561305557600080fd5b81356113ba81612ccd565b6000806040838503121561307357600080fd5b823561307e81612b1a565b9150602083013561308e81612b1a565b809150509250929050565b6000806000806000608086880312156130b157600080fd5b85356130bc81612b1a565b945060208601356130cc81612b1a565b93506040860135925060608601356001600160401b038111156130ee57600080fd5b6130fa88828901612b2a565b969995985093965092949392505050565b6000806040838503121561311e57600080fd5b823561312981612ccd565b9150602083013561308e81612ccd565b60008060006060848603121561314e57600080fd5b833561315981612b1a565b92506020840135612d3e81612b1a565b60006020828403121561317b57600080fd5b6113ba82612d4f565b6000806000806080858703121561319a57600080fd5b84356131a581612b1a565b935060208501356131b581612b1a565b925060408501356131c581612ccd565b9396929550929360600135925050565b600181811c908216806131e957607f821691505b602082108103612ab857634e487b7160e01b600052602260045260246000fd5b8183823760009101908152919050565b81835281816020850137506000828201602090810191909152601f909101601f19169091010190565b61ffff85168152606060208201526000613260606083018587613219565b905082604083015295945050505050565b61ffff871681526001600160a01b038616602082015260a06040820181905260009061329f90830187612c71565b851515606084015282810360808401526132ba818587613219565b9998505050505050505050565b600080604083850312156132da57600080fd5b505080516020909101519092909150565b634e487b7160e01b600052601160045260246000fd5b80820180821115610b3557610b356132eb565b61ffff84168152604060208201526000611a6e604083018486613219565b81810381811115610b3557610b356132eb565b8284823760609190911b6bffffffffffffffffffffffff19169101908152601401919050565b601f82111561211c57600081815260208120601f850160051c810160208610156133925750805b601f850160051c820191505b818110156111d65782815560010161339e565b81516001600160401b038111156133ca576133ca612f34565b6133de816133d884546131d5565b8461336b565b602080601f83116001811461341357600084156133fb5750858301515b600019600386901b1c1916600185901b1785556111d6565b600085815260208120601f198616915b8281101561344257888601518255948401946001909101908401613423565b50858210156134605787850151600019600388901b60f8161c191681555b5050505050600190811b01905550565b600061ffff80881683528087166020840152508460408301526080606083015261349e608083018486613219565b979650505050505050565b61ffff861681526080602082015260006134c7608083018688613219565b6001600160401b0394909416604083015250606001529392505050565b6001600160401b038311156134fb576134fb612f34565b61350f8361350983546131d5565b8361336b565b6000601f841160018114613543576000851561352b5750838201355b600019600387901b1c1916600186901b178355610c4f565b600083815260209020601f19861690835b828110156135745786850135825560209485019460019092019101613554565b50868210156135915760001960f88860031b161c19848701351681555b505060018560011b0183555050505050565b600082601f8301126135b457600080fd5b81516135c2612ffb82612f7a565b8181528460208386010111156135d757600080fd5b6135e8826020830160208701612c4d565b949350505050565b60006020828403121561360257600080fd5b81516001600160401b0381111561361857600080fd5b6135e8848285016135a3565b61ffff851681526080602082015260006136416080830186612c71565b6001600160401b0385166040840152828103606084015261349e8185612c71565b60008251613674818460208701612c4d565b9190910192915050565b61ffff8616815260a06020820152600061369b60a0830187612c71565b6001600160401b038616604084015282810360608401526136bc8186612c71565b905082810360808401526136d08185612c71565b98975050505050505050565b61ffff841681526060602082015260006136f96060830185612c71565b9050826040830152949350505050565b60008060006060848603121561371e57600080fd5b835161372981612b1a565b60208501519093506001600160401b0381111561374557600080fd5b613751868287016135a3565b925050604084015190509250925092565b61ffff8716815260c06020820152600061377f60c0830188612c71565b82810360408401526137918188612c71565b6001600160a01b0387811660608601528616608085015283810360a085015290506132ba8185612c71565b60208082526021908201527f4e61746976654f46543a20496e73756666696369656e74206d73672e76616c756040820152606560f81b60608201526080019056fea264697066735822122049d2749041e6074d8d30c18ff050b01fac64669a409b661aa1ec8c084fe1909664736f6c63430008110033",
  "devdoc": {
    "kind": "dev",
    "methods": {
      "allowance(address,address)": {
        "details": "See {IERC20-allowance}."
      },
      "approve(address,uint256)": {
        "details": "See {IERC20-approve}. NOTE: If `amount` is the maximum `uint256`, the allowance is not updated on `transferFrom`. This is semantically equivalent to an infinite approval. Requirements: - `spender` cannot be the zero address."
      },
      "balanceOf(address)": {
        "details": "See {IERC20-balanceOf}."
      },
      "circulatingSupply()": {
        "details": "returns the circulating amount of tokens on current chain"
      },
      "decimals()": {
        "details": "Returns the number of decimals used to get its user representation. For example, if `decimals` equals `2`, a balance of `505` tokens should be displayed to a user as `5.05` (`505 / 10 ** 2`). Tokens usually opt for a value of 18, imitating the relationship between Ether and Wei. This is the value {ERC20} uses, unless this function is overridden; NOTE: This information is only used for _display_ purposes: it in no way affects any of the arithmetic of the contract, including {IERC20-balanceOf} and {IERC20-transfer}."
      },
      "decreaseAllowance(address,uint256)": {
        "details": "Atomically decreases the allowance granted to `spender` by the caller. This is an alternative to {approve} that can be used as a mitigation for problems described in {IERC20-approve}. Emits an {Approval} event indicating the updated allowance. Requirements: - `spender` cannot be the zero address. - `spender` must have allowance for the caller of at least `subtractedValue`."
      },
      "estimateSendFee(uint16,bytes,uint256,bool,bytes)": {
        "details": "estimate send token `_tokenId` to (`_dstChainId`, `_toAddress`) _dstChainId - L0 defined chain id to send tokens too _toAddress - dynamic bytes array which contains the address to whom you are sending tokens to on the dstChain _amount - amount of the tokens to transfer _useZro - indicates to use zro to pay L0 fees _adapterParam - flexible bytes array to indicate messaging adapter services in L0"
      },
      "increaseAllowance(address,uint256)": {
        "details": "Atomically increases the allowance granted to `spender` by the caller. This is an alternative to {approve} that can be used as a mitigation for problems described in {IERC20-approve}. Emits an {Approval} event indicating the updated allowance. Requirements: - `spender` cannot be the zero address."
      },
      "name()": {
        "details": "Returns the name of the token."
      },
      "owner()": {
        "details": "Returns the address of the current owner."
      },
      "renounceOwnership()": {
        "details": "Leaves the contract without owner. It will not be possible to call `onlyOwner` functions anymore. Can only be called by the current owner. NOTE: Renouncing ownership will leave the contract without an owner, thereby removing any functionality that is only available to the owner."
      },
      "symbol()": {
        "details": "Returns the symbol of the token, usually a shorter version of the name."
      },
      "token()": {
        "details": "returns the address of the ERC20 token"
      },
      "totalSupply()": {
        "details": "See {IERC20-totalSupply}."
      },
      "transfer(address,uint256)": {
        "details": "See {IERC20-transfer}. Requirements: - `to` cannot be the zero address. - the caller must have a balance of at least `amount`."
      },
      "transferFrom(address,address,uint256)": {
        "details": "See {IERC20-transferFrom}. Emits an {Approval} event indicating the updated allowance. This is not required by the EIP. See the note at the beginning of {ERC20}. NOTE: Does not update the allowance if the current allowance is the maximum `uint256`. Requirements: - `from` and `to` cannot be the zero address. - `from` must have a balance of at least `amount`. - the caller must have allowance for ``from``'s tokens of at least `amount`."
      },
      "transferOwnership(address)": {
        "details": "Transfers ownership of the contract to a new account (`newOwner`). Can only be called by the current owner."
      }
    },
    "version": 1
  },
  "userdoc": {
    "kind": "user",
    "methods": {},
    "version": 1
  },
  "storageLayout": {
    "storage": [
      {
        "astId": 3897,
        "contract": "contracts/MinSendAmountNativeOFT.sol:MinSendAmountNativeOFT",
        "label": "_owner",
        "offset": 0,
        "slot": "0",
        "type": "t_address"
      },
      {
        "astId": 437,
        "contract": "contracts/MinSendAmountNativeOFT.sol:MinSendAmountNativeOFT",
        "label": "trustedRemoteLookup",
        "offset": 0,
        "slot": "1",
        "type": "t_mapping(t_uint16,t_bytes_storage)"
      },
      {
        "astId": 443,
        "contract": "contracts/MinSendAmountNativeOFT.sol:MinSendAmountNativeOFT",
        "label": "minDstGasLookup",
        "offset": 0,
        "slot": "2",
        "type": "t_mapping(t_uint16,t_mapping(t_uint16,t_uint256))"
      },
      {
        "astId": 445,
        "contract": "contracts/MinSendAmountNativeOFT.sol:MinSendAmountNativeOFT",
        "label": "precrime",
        "offset": 0,
        "slot": "3",
        "type": "t_address"
      },
      {
        "astId": 930,
        "contract": "contracts/MinSendAmountNativeOFT.sol:MinSendAmountNativeOFT",
        "label": "failedMessages",
        "offset": 0,
        "slot": "4",
        "type": "t_mapping(t_uint16,t_mapping(t_bytes_memory_ptr,t_mapping(t_uint64,t_bytes32)))"
      },
      {
        "astId": 2712,
        "contract": "contracts/MinSendAmountNativeOFT.sol:MinSendAmountNativeOFT",
        "label": "useCustomAdapterParams",
        "offset": 0,
        "slot": "5",
        "type": "t_bool"
      },
      {
        "astId": 4072,
        "contract": "contracts/MinSendAmountNativeOFT.sol:MinSendAmountNativeOFT",
        "label": "_balances",
        "offset": 0,
        "slot": "6",
        "type": "t_mapping(t_address,t_uint256)"
      },
      {
        "astId": 4078,
        "contract": "contracts/MinSendAmountNativeOFT.sol:MinSendAmountNativeOFT",
        "label": "_allowances",
        "offset": 0,
        "slot": "7",
        "type": "t_mapping(t_address,t_mapping(t_address,t_uint256))"
      },
      {
        "astId": 4080,
        "contract": "contracts/MinSendAmountNativeOFT.sol:MinSendAmountNativeOFT",
        "label": "_totalSupply",
        "offset": 0,
        "slot": "8",
        "type": "t_uint256"
      },
      {
        "astId": 4082,
        "contract": "contracts/MinSendAmountNativeOFT.sol:MinSendAmountNativeOFT",
        "label": "_name",
        "offset": 0,
        "slot": "9",
        "type": "t_string_storage"
      },
      {
        "astId": 4084,
        "contract": "contracts/MinSendAmountNativeOFT.sol:MinSendAmountNativeOFT",
        "label": "_symbol",
        "offset": 0,
        "slot": "10",
        "type": "t_string_storage"
      },
      {
        "astId": 4013,
        "contract": "contracts/MinSendAmountNativeOFT.sol:MinSendAmountNativeOFT",
        "label": "_status",
        "offset": 0,
        "slot": "11",
        "type": "t_uint256"
      },
      {
        "astId": 5216,
        "contract": "contracts/MinSendAmountNativeOFT.sol:MinSendAmountNativeOFT",
        "label": "minSendAmount",
        "offset": 0,
        "slot": "12",
        "type": "t_uint256"
      }
    ],
    "types": {
      "t_address": {
        "encoding": "inplace",
        "label": "address",
        "numberOfBytes": "20"
      },
      "t_bool": {
        "encoding": "inplace",
        "label": "bool",
        "numberOfBytes": "1"
      },
      "t_bytes32": {
        "encoding": "inplace",
        "label": "bytes32",
        "numberOfBytes": "32"
      },
      "t_bytes_memory_ptr": {
        "encoding": "bytes",
        "label": "bytes",
        "numberOfBytes": "32"
      },
      "t_bytes_storage": {
        "encoding": "bytes",
        "label": "bytes",
        "numberOfBytes": "32"
      },
      "t_mapping(t_address,t_mapping(t_address,t_uint256))": {
        "encoding": "mapping",
        "key": "t_address",
        "label": "mapping(address => mapping(address => uint256))",
        "numberOfBytes": "32",
        "value": "t_mapping(t_address,t_uint256)"
      },
      "t_mapping(t_address,t_uint256)": {
        "encoding": "mapping",
        "key": "t_address",
        "label": "mapping(address => uint256)",
        "numberOfBytes": "32",
        "value": "t_uint256"
      },
      "t_mapping(t_bytes_memory_ptr,t_mapping(t_uint64,t_bytes32))": {
        "encoding": "mapping",
        "key": "t_bytes_memory_ptr",
        "label": "mapping(bytes => mapping(uint64 => bytes32))",
        "numberOfBytes": "32",
        "value": "t_mapping(t_uint64,t_bytes32)"
      },
      "t_mapping(t_uint16,t_bytes_storage)": {
        "encoding": "mapping",
        "key": "t_uint16",
        "label": "mapping(uint16 => bytes)",
        "numberOfBytes": "32",
        "value": "t_bytes_storage"
      },
      "t_mapping(t_uint16,t_mapping(t_bytes_memory_ptr,t_mapping(t_uint64,t_bytes32)))": {
        "encoding": "mapping",
        "key": "t_uint16",
        "label": "mapping(uint16 => mapping(bytes => mapping(uint64 => bytes32)))",
        "numberOfBytes": "32",
        "value": "t_mapping(t_bytes_memory_ptr,t_mapping(t_uint64,t_bytes32))"
      },
      "t_mapping(t_uint16,t_mapping(t_uint16,t_uint256))": {
        "encoding": "mapping",
        "key": "t_uint16",
        "label": "mapping(uint16 => mapping(uint16 => uint256))",
        "numberOfBytes": "32",
        "value": "t_mapping(t_uint16,t_uint256)"
      },
      "t_mapping(t_uint16,t_uint256)": {
        "encoding": "mapping",
        "key": "t_uint16",
        "label": "mapping(uint16 => uint256)",
        "numberOfBytes": "32",
        "value": "t_uint256"
      },
      "t_mapping(t_uint64,t_bytes32)": {
        "encoding": "mapping",
        "key": "t_uint64",
        "label": "mapping(uint64 => bytes32)",
        "numberOfBytes": "32",
        "value": "t_bytes32"
      },
      "t_string_storage": {
        "encoding": "bytes",
        "label": "string",
        "numberOfBytes": "32"
      },
      "t_uint16": {
        "encoding": "inplace",
        "label": "uint16",
        "numberOfBytes": "2"
      },
      "t_uint256": {
        "encoding": "inplace",
        "label": "uint256",
        "numberOfBytes": "32"
      },
      "t_uint64": {
        "encoding": "inplace",
        "label": "uint64",
        "numberOfBytes": "8"
      }
    }
  }
}