{
  "address": "0x8352C746839699B1fc631fddc0C3a00d4AC71A17",
  "abi": [
    {
      "inputs": [
        {
          "internalType": "address",
          "name": "_weth",
          "type": "address"
        },
        {
          "internalType": "address",
          "name": "_oft",
          "type": "address"
        },
        {
          "internalType": "address",
          "name": "_universalRouter",
          "type": "address"
        }
      ],
      "stateMutability": "nonpayable",
      "type": "constructor"
    },
    {
      "inputs": [],
      "name": "oft",
      "outputs": [
        {
          "internalType": "contract IOFTCore",
          "name": "",
          "type": "address"
        }
      ],
      "stateMutability": "view",
      "type": "function"
    },
    {
      "inputs": [],
      "name": "poolFee",
      "outputs": [
        {
          "internalType": "uint24",
          "name": "",
          "type": "uint24"
        }
      ],
      "stateMutability": "view",
      "type": "function"
    },
    {
      "inputs": [
        {
          "internalType": "uint256",
          "name": "amountIn",
          "type": "uint256"
        },
        {
          "internalType": "uint256",
          "name": "amountOutMin",
          "type": "uint256"
        },
        {
          "internalType": "uint16",
          "name": "dstChainId",
          "type": "uint16"
        },
        {
          "internalType": "address",
          "name": "to",
          "type": "address"
        },
        {
          "internalType": "address payable",
          "name": "refundAddress",
          "type": "address"
        },
        {
          "internalType": "address",
          "name": "zroPaymentAddress",
          "type": "address"
        },
        {
          "internalType": "bytes",
          "name": "adapterParams",
          "type": "bytes"
        }
      ],
      "name": "swapAndBridge",
      "outputs": [],
      "stateMutability": "payable",
      "type": "function"
    },
    {
      "inputs": [],
      "name": "universalRouter",
      "outputs": [
        {
          "internalType": "contract IUniversalRouter",
          "name": "",
          "type": "address"
        }
      ],
      "stateMutability": "view",
      "type": "function"
    },
    {
      "inputs": [],
      "name": "weth",
      "outputs": [
        {
          "internalType": "address",
          "name": "",
          "type": "address"
        }
      ],
      "stateMutability": "view",
      "type": "function"
    }
  ],
  "transactionHash": "0x23cc0bec79def30d58efc0637f616e40965f7414dd4fbe994e85dea89d8dc84f",
  "args": [
    "0x4200000000000000000000000000000000000006",
    "0xE71bDfE1Df69284f00EE185cf0d95d0c7680c0d4",
    "0x3fC91A3afd70395Cd496C647d5a6CC9D4B2b7FAD"
  ],
  "numDeployments": 1,
  "solcInputHash": "f98c08ff9877c75f1e54cf4bab13f956",
  "bytecode": "0x60e060405234801561001057600080fd5b50604051610b1d380380610b1d83398101604081905261002f916101a3565b6001600160a01b0383166100985760405162461bcd60e51b815260206004820152602560248201527f537761707061626c654272696467653a20696e76616c69642057455448206164604482015264647265737360d81b60648201526084015b60405180910390fd5b6001600160a01b0382166100fa5760405162461bcd60e51b8152602060048201526024808201527f537761707061626c654272696467653a20696e76616c6964204f4654206164646044820152637265737360e01b606482015260840161008f565b6001600160a01b03811661016a5760405162461bcd60e51b815260206004820152603160248201527f537761707061626c654272696467653a20696e76616c696420556e6976657273604482015270616c20526f75746572206164647265737360781b606482015260840161008f565b6001600160a01b0392831660a05290821660c052166080526101e6565b80516001600160a01b038116811461019e57600080fd5b919050565b6000806000606084860312156101b857600080fd5b6101c184610187565b92506101cf60208501610187565b91506101dd60408501610187565b90509250925092565b60805160a05160c0516108e061023d60003960008181610110015281816102e501528181610438015261051f01526000818160dc01526102c101526000818160900152818161025e01526103b501526108e06000f3fe60806040526004361061004a5760003560e01c8063089fe6aa1461004f57806335a9e4df1461007e5780633fc8cef3146100ca5780639b5215f6146100fe578063ae30f6ee14610132575b600080fd5b34801561005b57600080fd5b50610065610bb881565b60405162ffffff90911681526020015b60405180910390f35b34801561008a57600080fd5b506100b27f000000000000000000000000000000000000000000000000000000000000000081565b6040516001600160a01b039091168152602001610075565b3480156100d657600080fd5b506100b27f000000000000000000000000000000000000000000000000000000000000000081565b34801561010a57600080fd5b506100b27f000000000000000000000000000000000000000000000000000000000000000081565b610145610140366004610600565b610147565b005b6001600160a01b0385166101ae5760405162461bcd60e51b815260206004820152602360248201527f537761707061626c654272696467653a20696e76616c696420746f206164647260448201526265737360e81b60648201526084015b60405180910390fd5b8734101561020d5760405162461bcd60e51b815260206004820152602660248201527f537761707061626c654272696467653a206e6f7420656e6f7567682076616c7560448201526519481cd95b9d60d21b60648201526084016101a5565b6040805180820182526002808252600b60f81b60208301528251818152606081019093529091600091816020015b606081526020019060019003908161023b57905050604080516001600160a01b037f00000000000000000000000000000000000000000000000000000000000000001660208201529081018c9052909150606001604051602081830303815290604052816000815181106102b1576102b16106d7565b6020026020010181905250308a8a7f0000000000000000000000000000000000000000000000000000000000000000610bb87f000000000000000000000000000000000000000000000000000000000000000060405160200161034c93929190606093841b6bffffffffffffffffffffffff19908116825260e89390931b6001600160e81b0319166014820152921b166017820152602b0190565b60408051601f198184030181529082905261036f94939291600090602001610733565b60405160208183030381529060405281600181518110610391576103916106d7565b6020908102919091010152604051630d64d59360e21b815242906001600160a01b037f00000000000000000000000000000000000000000000000000000000000000001690633593564c908d906103f090879087908790600401610774565b6000604051808303818588803b15801561040957600080fd5b505af115801561041d573d6000803e3d6000fd5b50506040516370a0823160e01b8152306004820152600093507f00000000000000000000000000000000000000000000000000000000000000006001600160a01b031692506370a082319150602401602060405180830381865afa158015610489573d6000803e3d6000fd5b505050506040513d601f19601f820116820180604052508101906104ad91906107ef565b90508a8110156105155760405162461bcd60e51b815260206004820152602d60248201527f537761707061626c654272696467653a20696e73756666696369656e7420616d60448201526c1bdd5b9d081c9958d95a5d9959609a1b60648201526084016101a5565b6001600160a01b037f000000000000000000000000000000000000000000000000000000000000000016635190563661054e8e34610808565b6040516bffffffffffffffffffffffff1960608e901b16602082015230908e90603401604051602081830303815290604052868e8e8e8e6040518a63ffffffff1660e01b81526004016105a898979695949392919061082f565b6000604051808303818588803b1580156105c157600080fd5b505af11580156105d5573d6000803e3d6000fd5b5050505050505050505050505050505050565b6001600160a01b03811681146105fd57600080fd5b50565b60008060008060008060008060e0898b03121561061c57600080fd5b8835975060208901359650604089013561ffff8116811461063c57600080fd5b9550606089013561064c816105e8565b9450608089013561065c816105e8565b935060a089013561066c816105e8565b925060c089013567ffffffffffffffff8082111561068957600080fd5b818b0191508b601f83011261069d57600080fd5b8135818111156106ac57600080fd5b8c60208285010111156106be57600080fd5b6020830194508093505050509295985092959890939650565b634e487b7160e01b600052603260045260246000fd5b6000815180845260005b81811015610713576020818501810151868301820152016106f7565b506000602082860101526020601f19601f83011685010191505092915050565b60018060a01b038616815284602082015283604082015260a06060820152600061076060a08301856106ed565b905082151560808301529695505050505050565b60608152600061078760608301866106ed565b6020838203818501528186518084528284019150828160051b85010183890160005b838110156107d757601f198784030185526107c58383516106ed565b948601949250908501906001016107a9565b50508095505050505050826040830152949350505050565b60006020828403121561080157600080fd5b5051919050565b8181038181111561082957634e487b7160e01b600052601160045260246000fd5b92915050565b600060018060a01b03808b16835261ffff8a16602084015260e0604084015261085b60e084018a6106ed565b886060850152818816608085015281871660a085015283810360c0850152848152848660208301376000602086830101526020601f19601f87011682010192505050999850505050505050505056fea2646970667358221220f91508e23345baa7a2ef4eb13a8b534ff980f461442b2a15b46061c9fae50d1764736f6c63430008110033",
  "devdoc": {
    "kind": "dev",
    "methods": {},
    "version": 1
  },
  "userdoc": {
    "kind": "user",
    "methods": {},
    "version": 1
  },
  "storageLayout": {
    "storage": [],
    "types": null
  }
}