{
  "address": "0x0A9f824C05A74F577A536A8A0c673183a872Dff4",
  "abi": [
    {
      "inputs": [
        {
          "internalType": "address",
          "name": "_weth",
          "type": "address"
        },
        {
          "internalType": "address",
          "name": "_oft",
          "type": "address"
        },
        {
          "internalType": "address",
          "name": "_swapRouter",
          "type": "address"
        }
      ],
      "stateMutability": "nonpayable",
      "type": "constructor"
    },
    {
      "inputs": [],
      "name": "oft",
      "outputs": [
        {
          "internalType": "contract IOFTCore",
          "name": "",
          "type": "address"
        }
      ],
      "stateMutability": "view",
      "type": "function"
    },
    {
      "inputs": [],
      "name": "poolFee",
      "outputs": [
        {
          "internalType": "uint24",
          "name": "",
          "type": "uint24"
        }
      ],
      "stateMutability": "view",
      "type": "function"
    },
    {
      "inputs": [
        {
          "internalType": "uint256",
          "name": "amountIn",
          "type": "uint256"
        },
        {
          "internalType": "uint256",
          "name": "amountOutMin",
          "type": "uint256"
        },
        {
          "internalType": "uint16",
          "name": "dstChainId",
          "type": "uint16"
        },
        {
          "internalType": "address",
          "name": "to",
          "type": "address"
        },
        {
          "internalType": "address payable",
          "name": "refundAddress",
          "type": "address"
        },
        {
          "internalType": "address",
          "name": "zroPaymentAddress",
          "type": "address"
        },
        {
          "internalType": "bytes",
          "name": "adapterParams",
          "type": "bytes"
        }
      ],
      "name": "swapAndBridge",
      "outputs": [],
      "stateMutability": "payable",
      "type": "function"
    },
    {
      "inputs": [],
      "name": "swapRouter",
      "outputs": [
        {
          "internalType": "contract ISwapRouter",
          "name": "",
          "type": "address"
        }
      ],
      "stateMutability": "view",
      "type": "function"
    },
    {
      "inputs": [],
      "name": "weth",
      "outputs": [
        {
          "internalType": "contract IWETH",
          "name": "",
          "type": "address"
        }
      ],
      "stateMutability": "view",
      "type": "function"
    }
  ],
  "transactionHash": "0x7e95b3a9e26e65ed06d082f597433beba583dc221df5db632bc88d0fb34e89dc",
  "args": [
    "0x82aF49447D8a07e3bd95BD0d56f35241523fBab1",
    "0xdD69DB25F6D620A7baD3023c5d32761D353D3De9",
    "0xE592427A0AEce92De3Edee1F18E0157C05861564"
  ],
  "numDeployments": 1,
  "solcInputHash": "2cb2c9d2cdb45228195135f1d0cea8a4",
  "bytecode": "0x60e060405234801561001057600080fd5b50604051610a07380380610a0783398101604081905261002f9161019e565b6001600160a01b0383166100985760405162461bcd60e51b815260206004820152602560248201527f537761707061626c654272696467653a20696e76616c69642057455448206164604482015264647265737360d81b60648201526084015b60405180910390fd5b6001600160a01b0382166100fa5760405162461bcd60e51b8152602060048201526024808201527f537761707061626c654272696467653a20696e76616c6964204f4654206164646044820152637265737360e01b606482015260840161008f565b6001600160a01b0381166101655760405162461bcd60e51b815260206004820152602c60248201527f537761707061626c654272696467653a20696e76616c6964205377617020526f60448201526b75746572206164647265737360a01b606482015260840161008f565b6001600160a01b0392831660805290821660a0521660c0526101e1565b80516001600160a01b038116811461019957600080fd5b919050565b6000806000606084860312156101b357600080fd5b6101bc84610182565b92506101ca60208501610182565b91506101d860408501610182565b90509250925092565b60805160a05160c0516107c861023f6000396000818161012501528181610295015261041c01526000818160dc01528181610370015261049801526000818160900152818161020f015281816102c4015261034b01526107c86000f3fe60806040526004361061004a5760003560e01c8063089fe6aa1461004f5780633fc8cef31461007e5780639b5215f6146100ca578063ae30f6ee146100fe578063c31c9c0714610113575b600080fd5b34801561005b57600080fd5b50610065610bb881565b60405162ffffff90911681526020015b60405180910390f35b34801561008a57600080fd5b506100b27f000000000000000000000000000000000000000000000000000000000000000081565b6040516001600160a01b039091168152602001610075565b3480156100d657600080fd5b506100b27f000000000000000000000000000000000000000000000000000000000000000081565b61011161010c366004610577565b610147565b005b34801561011f57600080fd5b506100b27f000000000000000000000000000000000000000000000000000000000000000081565b6001600160a01b0385166101ae5760405162461bcd60e51b815260206004820152602360248201527f537761707061626c654272696467653a20696e76616c696420746f206164647260448201526265737360e81b60648201526084015b60405180910390fd5b8734101561020d5760405162461bcd60e51b815260206004820152602660248201527f537761707061626c654272696467653a206e6f7420656e6f7567682076616c7560448201526519481cd95b9d60d21b60648201526084016101a5565b7f00000000000000000000000000000000000000000000000000000000000000006001600160a01b031663d0e30db0896040518263ffffffff1660e01b81526004016000604051808303818588803b15801561026857600080fd5b505af115801561027c573d6000803e3d6000fd5b505060405163095ea7b360e01b81526001600160a01b037f000000000000000000000000000000000000000000000000000000000000000081166004830152602482018d90527f000000000000000000000000000000000000000000000000000000000000000016935063095ea7b3925060440190506020604051808303816000875af1158015610311573d6000803e3d6000fd5b505050506040513d601f19601f82011682018060405250810190610335919061064e565b5060408051610100810182526001600160a01b037f0000000000000000000000000000000000000000000000000000000000000000811682527f0000000000000000000000000000000000000000000000000000000000000000811660208301908152610bb88385019081523060608501908152426080860190815260a086018f815260c087018f8152600060e08901818152995163414bf38960e01b8152895189166004820152965188166024880152945162ffffff166044870152925186166064860152905160848501525160a48401525160c48301529351821660e48201529192917f00000000000000000000000000000000000000000000000000000000000000009091169063414bf38990610104016020604051808303816000875af1158015610468573d6000803e3d6000fd5b505050506040513d601f19601f8201168201806040525081019061048c9190610677565b90506001600160a01b037f00000000000000000000000000000000000000000000000000000000000000001663519056366104c78c34610690565b6040516bffffffffffffffffffffffff1960608c901b16602082015230908c90603401604051602081830303815290604052868c8c8c8c6040518a63ffffffff1660e01b81526004016105219897969594939291906106e0565b6000604051808303818588803b15801561053a57600080fd5b505af115801561054e573d6000803e3d6000fd5b505050505050505050505050505050565b6001600160a01b038116811461057457600080fd5b50565b60008060008060008060008060e0898b03121561059357600080fd5b8835975060208901359650604089013561ffff811681146105b357600080fd5b955060608901356105c38161055f565b945060808901356105d38161055f565b935060a08901356105e38161055f565b925060c089013567ffffffffffffffff8082111561060057600080fd5b818b0191508b601f83011261061457600080fd5b81358181111561062357600080fd5b8c602082850101111561063557600080fd5b6020830194508093505050509295985092959890939650565b60006020828403121561066057600080fd5b8151801515811461067057600080fd5b9392505050565b60006020828403121561068957600080fd5b5051919050565b818103818111156106b157634e487b7160e01b600052601160045260246000fd5b92915050565b81835281816020850137506000828201602090810191909152601f909101601f19169091010190565b60018060a01b03891681526000602061ffff8a168184015260e0604084015288518060e085015260005b81811015610727578a81018301518582016101000152820161070a565b5061010091506000828286010152601f19601f8201168401905088606085015261075c60808501896001600160a01b03169052565b6001600160a01b03871660a0850152818482030160c085015261078282820186886106b7565b9c9b50505050505050505050505056fea264697066735822122057f09a8fffe830ced4b625f4d8edb4f36d4ccba9111e4d183c37b943a102c64764736f6c63430008110033",
  "devdoc": {
    "kind": "dev",
    "methods": {},
    "version": 1
  },
  "userdoc": {
    "kind": "user",
    "methods": {},
    "version": 1
  },
  "storageLayout": {
    "storage": [],
    "types": null
  }
}